:100000000C9434000C9451000C9451000C94510049
:100010000C9451000C9451000C9451000C9451001C
:100020000C9451000C9451000C9451000C9451000C
:100030000C9451000C9451000C9451000C945100FC
:100040000C9451000C9451000C9451000C945100EC
:100050000C9451000C9451000C9451000C945100DC
:100060000C9451000C94510011241FBECFEFD8E026
:10007000DEBFCDBF11E0A0E0B1E0E4E9F9E002C0ED
:1000800005900D92A03DB107D9F724E0A0EDB1E0B5
:1000900001C01D92A636B207E1F70E94FD000C9444
:1000A000C8040C9400001092C50087E68093C40039
:1000B00086E08093C20088E18093C100089590910A
:1000C000C00095FFFCCF8093C60008958091C000CA
:1000D00087FFFCCF8091C6000895CF93DF93EC019A
:1000E0008991811103C0DF91CF9108950E945F0033
:1000F000F7CFAC018DB79EB7682F792F8091D201D1
:10010000382F20E02A593C4F822F932F8DBF9EBF5E
:10011000842F8F93952F9F934091D2015091D301BB
:100120002250310989E4849FF001859FF00D11244C
:10013000EC52FE4F31832083862F972F8DBF9EBFB9
:100140004F5F5F4F5093D3014093D20108958DB715
:100150009EB7282F392F8091D0019091D10149E489
:10016000489FF001499FF00D1124EC52FE4F31835E
:10017000208301969093D1018093D0012091D201E8
:100180003091D3018217930724F01092D10110927D
:10019000D0018091D0019091D10129E4289FF001F4
:1001A000299FF00D1124EC52FE4F20813181822FC6
:1001B000932F8DBF9EBF089580E091E00E946D0057
:1001C0000E94A7008BE091E00E946D000C94A700B4
:1001D0008BE191E00E946D000E94A70087E291E010
:1001E0000E946D002AEA32E085EE9FE02150304007
:1001F00080409040D9F700000895CDB7DEB7A097B2
:100200000FB6F894DEBF0FBECDBF8DB79EB7082FD7
:10021000192F0E94530067E371E0CE0101960E94FE
:10022000DE01CE0101960E946D000E5F1F4F1F93ED
:100230000F9387E491E09F938F931F9210E21F9397
:1002400081E090E08C0F9D1F9F938F930E94E501AA
:10025000CE0101960E946D008CED90E00E94790025
:100260008CED90E09F938F9381E691E09F938F9325
:100270001F921F9381E090E08C0F9D1F9F938F939F
:100280000E94E501CE0101960E946D00E091D4012B
:10029000F091D5018091D4019091D50122812F93C5
:1002A00021812F939F938F9382E791E09F938F9368
:1002B0001F921F9381E090E08C0F9D1F9F938F935F
:1002C0000E94E501CE0101960E946D0088EE90E04B
:1002D0000E94790088EE90E09F938F9384E891E0EC
:1002E0009F938F931F921F9381E090E08C0F9D1F2F
:1002F0009F938F930E94E5010FB6F894DEBF0FBE67
:10030000CDBFCE0101960E946D00E091D401F09125
:10031000D5018091D4019091D50122812F93218123
:100320002F939F938F9385E991E09F938F931F92D3
:100330001F9381E090E08C0F9D1F9F938F930E94ED
:10034000E501CE0101960E946D00E0911D02F09141
:100350001E0280911D0290911E0222812F93218105
:100360002F939F938F938BEA91E09F938F931F928C
:100370001F9381E090E08C0F9D1F9F938F930E94AD
:10038000E501CE0101960E946D0061EC71E0CE01A5
:1003900001960E94DE01CE0101960E946D0020911F
:1003A000D4013091D501822F932F8DBF9EBF089528
:1003B0000FB6F894DEBF0FBECDBFFFCFFB01DC014F
:1003C00001900D920020E1F70895AEE0B0E0EBEE71
:1003D000F1E00C949F040D891E898F89988D26E089
:1003E0002C831A83098397FF02C080E090E801976D
:1003F0009E838D83AE01455E5F4F698D7A8DCE0100
:1004000001960E9415024D815E8157FD0AC02F8121
:100410003885421753070CF49A01020F131FF80195
:1004200010822E96E4E00C94BB04AFE0B0E0EBE168
:10043000F2E00C9491047C013B018A01DC011796E7
:100440001C921E92169713968C9181FFC3C19AE05D
:10045000292EFE0131964F01D70113969C91F3018D
:1004600093FD859193FF81913F01882309F448C151
:10047000853239F493FD859193FF81913F01853257
:1004800029F4B70190E00E940304E6CFB12C412C7F
:10049000512CBFE1B51538F08B3209F188F4803268
:1004A00001F1833221F157FC3AC020ED280F2A30A8
:1004B00040F556FE1FC0B29C200D1124B22E06C07E
:1004C0008D3291F0803379F7689450F8F30193FD01
:1004D000859193FF81913F018111DBCF20C068940A
:1004E00051F8689452F8F2CF689453F8EFCF6894BB
:1004F00054F8ECCF429C200D1124422E689455F8FC
:10050000E5CF8E3229F456FCFBC0689456F8DECF56
:100510008C3619F4689457F8D9CF8836B9F2982FE9
:100520009F7D95549330C0F08336A1F18337C1F19C
:10053000833509F05BC0D801CD90DD908D016B2D26
:1005400070E056FC02C06FEF7FEFC6010E94ED0322
:100550005C01689457F80AC00C5F1F4FEFE3E98312
:10056000AA24A394B12C6401E89457F853FC04C066
:100570004A141B0409F018F5342CA114B10431F508
:10058000332009F469CFB70180E290E00E940304B0
:100590003A94F6CFD8018C9189830E5F1F4FE0CF3C
:1005A000F801C190D1908F016B2D70E056FC02C014
:1005B0006FEF7FEFC6010E94F8035C01D5CFB70152
:1005C00080E290E00E9403044A94D2CFF60157FCE7
:1005D000859157FE81916F01B70190E00E9403045D
:1005E00031103A94B1E0AB1AB108C7CF843619F094
:1005F000893609F074C0F80157FE6AC061917191A3
:10060000819191918F01E52DEF76DE2E97FF09C044
:1006100090958095709561957F4F8F4F9F4F68940F
:10062000D7F82AE030E0A4010E943304C82EC8188D
:10063000AC2C5D2CD6FE0CC0E89450F8CB1440F4E2
:10064000D4FE05C0D2FC03C05D2D5E7E552EAB2CC2
:1006500054FE98C0FE01EC0DF11D8081803309F03D
:100660008AC0652D697E562E752D7870372E53FC05
:1006700098C050FE92C0BC2CA41418F44C0CB42C9E
:10068000BA1854FE94C0B70180E390E00E940304BE
:1006900052FE09C088E790E051FE02C088E590E074
:1006A000B7010E940304CB1408F48DC0CA94D12C66
:1006B0008FEFC81AD80AC80CD91CD6018E916D01CB
:1006C000B70190E00E9403048C149D04B1F758CF49
:1006D00061917191072E000C880B990B93CFD52C4B
:1006E000E894D4F82AE030E0853739F1F52DF97F28
:1006F000DF2E8037A9F058F48835A9F08F36D9F06D
:10070000F701868197812F96E2E10C94AD0488373A
:10071000B9F7D4FE02C06894D2F820E130E00DC0F1
:100720006894D4F8F6CF54FE03C02F2F2660D22E43
:1007300020E132E002C028E030E0F801D7FE15C029
:1007400041915191619171914C875D876E877F874F
:100750008F01A4016C857D858E859F850E94330461
:10076000C82EC818E894D7F863CF81919191AC0155
:1007700070E060E0E9CF52FC02C0A39475CFA3946F
:10078000A39472CF852D867809F46ECFF6CFB7018A
:1007900080E290E00E940304A394A414C0F3312CDF
:1007A00070CF342C3A18A41408F46BCFF8CF852DF1
:1007B000867809F478CF8BE251FE80E257FC8DE217
:1007C000B70190E06ECFB70180E390E00E94030490
:1007D000BA9469CF8FEF9FEF96CFFC0105906150DF
:1007E00070400110D8F7809590958E0F9F1F089547
:1007F000FC016150704001900110D8F780959095F0
:100800008E0F9F1F08950F931F93CF93DF93182F81
:10081000092FEB018B8181FD09C01FEF0FEF812FA5
:10082000902FDF91CF911F910F91089582FF14C0F7
:100830002E813F818C819D81281739073CF4E88106
:10084000F981CF0101969983888310838E819F81DE
:1008500001969F838E83E3CFE885F985812F0995E3
:10086000892BA1F3DACFFA01AA27283051F12031E0
:1008700081F1E8946F936E7F6E5F7F4F8F4F9F4F34
:10088000AF4FB1E03ED0B4E03CD0670F781F891F76
:100890009A1FA11D680F791F8A1F911DA11D6A0F44
:1008A000711D811D911DA11D20D009F468943F91F7
:1008B0002AE0269F11243019305D3193DEF6CF01F6
:1008C0000895462F4770405D4193B3E00FD0C9F7BC
:1008D000F6CF462F4F70405D4A3318F0495D31FD29
:1008E0004052419302D0A9F7EACFB4E0A69597957C
:1008F000879577956795BA95C9F700976105710552
:1009000008959B01AC010A2E06945795479537959B
:100910002795BA95C9F7620F731F841F951FA01DF5
:1009200008952F923F924F925F926F927F928F9293
:100930009F92AF92BF92CF92DF92EF92FF920F936E
:100940001F93CF93DF93CDB7DEB7CA1BDB0B0FB678
:10095000F894DEBF0FBECDBF09942A883988488835
:100960005F846E847D848C849B84AA84B984C884CB
:10097000DF80EE80FD800C811B81AA81B981CE0FC2
:10098000D11D0FB6F894DEBF0FBECDBFED010895A7
:04099000F894FFCF09
:100994006C6564315F706B610D0A006C65643120B5
:1009A40070696B6120656E640D0A006C65643220A9
:1009B40070696B610D0A006C6564322070696B614B
:1009C40020656E640D0A007374617274206D616930
:1009D4006E2121210D0A006D61696E2073746163BB
:1009E4006B20706F696E74657220253034580D0A5F
:1009F400006C6564315F70696B6120253034580D7B
:100A04000A002830297370202530345820253034CA
:100A1400580D0A006C6564325F70696B6120253083
:100A240034580D0A002830296E657720737020250C
:100A340030345820253034580D0A002831296E6589
:100A440077207370202530345820253034580D0A0F
:100A540000696E697420656E642121210D0A00000D
:00000001FF
