:100000000C9434000C9451000C9451000C94510049
:100010000C9451000C9451000C9451000C9451001C
:100020000C9451000C9451000C9451000C9451000C
:100030000C9451000C9451000C9451000C945100FC
:100040000C9451000C9451000C9451000C945100EC
:100050000C9451000C9451000C9451000C945100DC
:100060000C9451000C94510011241FBECFEFD8E026
:10007000DEBFCDBF11E0A0E0B1E0E0EEF3E002C0F2
:1000800005900D92AE35B107D9F723E0AEE5B1E0AA
:1000900001C01D92A93CB207E1F70E948B010C94AC
:1000A000EE010C9400001092C50087E68093C40016
:1000B00086E08093C20088E18093C100089590910A
:1000C000C00095FFFCCF8093C60008958091C000CA
:1000D00087FFFCCF8091C6000895CF93DF93EC019A
:1000E000899181110CC02FEF83E294EF2150804061
:1000F0009040E1F700C00000DF91CF9108950E9489
:100100005F00EECFCF93DF93CDB7DEB7C054D109F8
:100110000FB6F894DEBF0FBECDBF60E071E0CE0138
:1001200001960E94E701CE0101960E946D00209188
:10013000B3013091B401822F932F8DBF9EBF60E138
:1001400071E0CE0101960E94E701CE0101960E9466
:100150006D000895C05CDF4F0FB6F894DEBF0FBE90
:10016000CDBFDF91CF910895CF93DF93CDB7DEB7A9
:10017000C054D1090FB6F894DEBF0FBECDBF64E204
:1001800071E0CE0101960E94E701CE0101960E9426
:100190006D002091660130916701822F932F8DBFF2
:1001A0009EBF61E371E0CE0101960E94E701CE019E
:1001B00001960E946D000895C05CDF4F0FB6F89461
:1001C000DEBF0FBECDBFDF91CF9108952DE4289FF4
:1001D000F001299FF00D1124EE59FE4F0E94F0000E
:1001E0008DB79EB7282F392F3583248308954DE48A
:1001F000489F9001499F300D11242E593E4FF9011F
:1002000024813581822F932F8DBF9EBF089508953D
:10021000AC0160916001709161019B012F5F3F4FC4
:1002200030936101209360018DE4869FF001879FE8
:10023000F00D1124EE59FE4FDF011D928A95E9F76A
:100240008DB79EB7682F792F3695322F2227379595
:100250002795275B3D4F822F932F8DBF9EBF842F05
:100260008F93952F9F938DB79EB7282F392F358366
:100270002483862F972F8DBF9EBF089580915E01A6
:1002800090915F010E94E60080915E0190915F0174
:10029000019690935F0180935E01209160013091FF
:1002A00061018217930724F010925F0110925E01A2
:1002B00080915E0190915F010C94F700EF92FF92A4
:1002C0000F931F93CF93DF9300D0CDB7DEB78C0190
:1002D0001A82198288EEE82E83E0F82E89819A81AD
:1002E000801791074CF00F900F90DF91CF911F91E5
:1002F0000F91FF90EF90089589819A81B7010E9434
:10030000BF01892B11F40E943E0189819A810196D7
:100310009A838983E3CFCDB7DEB7C054D1090FB636
:10032000F894DEBF0FBECDBF0E94530065E471E0BC
:10033000CE0101960E94E701CE0101960E946D0058
:1003400084B1806384B982E890E00E94080184EB64
:1003500090E00E9408016FE471E0CE0101960E94D6
:10036000E701CE0101960E946D0020916601309157
:100370006701822F932F8DBF9EBF0895FFCF97FBFC
:10038000072E16F4009407D077FD09D00E94D30100
:1003900007FC05D03EF4909581959F4F0895709588
:1003A00061957F4F0895AA1BBB1B51E107C0AA1F8F
:1003B000BB1FA617B70710F0A61BB70B881F991F06
:1003C0005A95A9F780959095BC01CD010895FB0140
:1003D000DC0101900D920020E1F70895F894FFCF21
:1003E0006C6564315F70696B61212121200D0A0009
:1003F0006C6564315F70696B6121212120726574C5
:10040000200D0A006C6564325F70696B61212121E7
:10041000006C6564325F70696B6121212120726517
:1004200074200D0A006D61696E2121210D0A006999
:0E0430006E697420656E642121210D0A0000A2
:00000001FF
