:100000000C94CE000C94ED000C94ED000C94ED00DB
:100010000C94ED000C94ED000C94ED000C94ED00AC
:100020000C94ED000C94ED000C94ED000C94ED009C
:100030000C94ED000C943D010C94ED000C94ED003B
:100040000C94ED000C94ED000C94ED000C94ED007C
:100050000C94ED000C94ED000C94ED000C94ED006C
:100060000C94ED000C94ED000C94ED000C94ED005C
:100070000C94ED000C94ED000C94ED000C94ED004C
:100080000C942C080C94ED000C94ED001B69706925
:100090006B696669A768A768A768A76861695C69F2
:1000A000A768A768A768A76854694F694A6945693E
:1000B000A768A768A768A768A768A768A768A768C8
:1000C000A768A768A768A768A768A768A768A768B8
:1000D000A768A768A768A768A768A768A768A768A8
:1000E000A768A768A768A768A768A768A768A76898
:1000F000A768A768A768A768A768A768A768A76888
:10010000A768A768A768A768A768A768A768A76877
:10011000A768A768A768A768A768A768A768A76867
:10012000A768A768A768A768A768A768A768A76857
:10013000A768A768A768A768A768A768A768A76847
:10014000A768A768A768A768A768A768A768A76837
:10015000A768A768A768A768A768A768A768A76827
:10016000A768A768A768A768A768A768A768A76817
:10017000A768A768A768A768A768A768A768A76807
:10018000A768A768A768A768A768A76840693B69C8
:10019000366931692C6927692069146911241FBEE9
:1001A000CFEFD0E4DEBFCDBF15E0A0E0B1E0EEE1DF
:1001B000F7ED00E00BBF02C007900D92A038B10729
:1001C000D9F71BE3A0E8B5E001C01D92A53CB1073B
:1001D000E1F70E9439090C948D6B0C94000040915A
:1001E0000001442309F455C295B19F7370E460E89F
:1001F00058E095B987FD73B963B9880F4E99839517
:100200005A9563B9B1F70895372F3F7030637295EF
:100210008295482F7F70407F472B8F7080639FB7F8
:10022000F89442B985B94F9A000062B935B91C9A61
:100230000000000086B100001C9A4F9A9FBF0895ED
:10024000372F3F70306172958295582F7F70507FA5
:10025000572B8F7080632FEF9FB7F89427B952B94F
:1002600085B94F9A48B91D9A62B935B91C9A1D9A39
:100270001C9A4F9A17B89FBF08959F938F937F93AF
:100280007FB7992780EF1C9A4F9A93951C9A4F9AA3
:10029000D1F78395C1F77FBF7F918F919F9118957B
:1002A000A0E3B0E0E6E5F1E00C94566BA8E04E0167
:1002B0000894811C911CF401BA2F1192BA95E9F7A8
:1002C00029833A834B835C836D837E838F839887F6
:1002D000CE010996FC011192AA95E9F7A986BA8682
:1002E000CB86DC86ED86FE860F87188B29813A81C6
:1002F0004B815C812DA73EA74FA758AB79018A019E
:100300008FEF9FEFA0E0B0E0E822F9220A231B2341
:100310001A014424552429853A854B855C8529A7F3
:100320003AA74BA75CA759016A01A822B922CA22A1
:10033000DB223A0188249924C601B501A80197015E
:100340000E94156B6DA37EA38FA398A7C401B30170
:100350000E94156B69A37AA38BA39CA3C601B50168
:10036000A20191010E94156B7B018C01C401B301B4
:100370000E94156B5B016C0189A19AA1ABA1BCA184
:100380008E0D9F1DA01FB11F89A39AA3ABA3BCA371
:100390002DA13EA14FA158A5CA01AA27BB2729A17B
:1003A0003AA14BA15CA1280F391F4A1F5B1F29A34B
:1003B0003AA34BA35CA32E153F054007510740F419
:1003C00080E090E0A1E0B0E0A80EB91ECA1EDB1EDE
:1003D00089A19AA1ABA1BCA19D01442755272A0D53
:1003E0003B1D4C1D5D1D2D8F3E8F4F8F58A36C0103
:1003F000BB24AA248DA19EA1AFA1B8A5A070B07006
:10040000A80EB91ECA1EDB1EA98EBA8ECB8EDC8E3C
:100410009A8C8B8C7C8C9E8D6F8D78A1FE01719651
:1004200088E0DF011D928A95E9F72D8B9E8B6F8BFB
:10043000788F2D853E854F8558896DA57EA58FA522
:1004400098A90E94156B7B018C012D813E814F8103
:10045000588569A57AA58BA59CA50E94156BE60E0B
:10046000F71E081F191F6D897E898F89988D6E0D63
:100470007F1D801F911F6D8B7E8B8F8B988FEE89D8
:100480002A2D392D482D572D7E2F8F89988DE09656
:10049000E2E10C94726BEF92FF920F93DF93CF9394
:1004A000CDB7DEB760970FB6F894DEBF0FBECDBFF5
:1004B000A82F002309F461C07E010894E11CF11CFF
:1004C00088E0F70111928A95E9F729833A834B83F3
:1004D0005C836D837E83AF83988780E2801BE82FE7
:1004E000FF27E7FDF0954D815E816F8178851816B5
:1004F00084F01D861E861F86188A882799278E1BE2
:100500009F0B04C076956795579547958A95D2F7C6
:1005100028C0202F332727FD3095DB01CA01022E8A
:1005200004C0B695A795979587950A94D2F78D87BD
:100530009E87AF87B88B04C0440F551F661F771F77
:10054000EA95D2F789819A81AB81BC8104C0B695C6
:10055000A795979587952A95D2F7482B592B6A2B03
:100560007B2B49875A876B877C8729853A854B8502
:100570005C856D857E85AF8598898A2F60960FB6DC
:10058000F894DEBF0FBECDBFCF91DF910F91FF90EA
:10059000EF900895EF92FF920F93DF93CF93CDB733
:1005A000DEB760970FB6F894DEBF0FBECDBFA82FA1
:1005B000002309F461C07E010894E11CF11C88E06D
:1005C000F70111928A95E9F729833A834B835C837B
:1005D0006D837E83AF83988780E2801BE82FFF279F
:1005E000E7FDF09549815A816B817C81181684F072
:1005F00019861A861B861C86882799278E1B9F0BB7
:1006000004C0440F551F661F771F8A95D2F728C074
:10061000202F332727FD3095DB01CA01022E04C0AD
:10062000880F991FAA1FBB1F0A94D2F789879A8740
:10063000AB87BC8704C07695679557954795EA9533
:10064000D2F78D819E81AF81B88504C0880F991F34
:10065000AA1FBB1F2A95D2F7482B592B6A2B7B2B3D
:100660004D875E876F87788B29853A854B855C85BA
:100670006D857E85AF8598898A2F60960FB6F89430
:10068000DEBF0FBECDBFCF91DF910F91FF90EF90F6
:100690000895DF93CF9300D0CDB7DEB7282F30E099
:1006A0002DC02E981A82198289819A8101969A8387
:1006B000898389819A8101979A8389832F9A1A82E3
:1006C000198289819A8101969A83898389819A8185
:1006D00001979A838983220F4E992F5F2F981A8250
:1006E000198289819A8101969A83898389819A8165
:1006F00001979A8389833F5F383021F027FFD1CF5C
:100700002E9AD0CF2E98822F0F900F90CF91DF91FD
:1007100008952F923F924F925F926F927F928F92A5
:100720009F92AF92BF92CF92DF92EF92FF920F9380
:100730001F93DF93CF9300D000D0CDB7DEB71C015D
:100740004A015B01C982DA82EB82FC82880C991C27
:10075000AA1CBB1C880C991CAA1CBB1C880C991CCD
:10076000AA1CBB1C089481089108A108B108801A32
:10077000910AA20AB30A8701760144245524320162
:10078000D501C40123E0B695A795979587952A953D
:10079000D1F7F101E80FF91F808190E0A5019401E4
:1007A0002095309540955095277002C09595879576
:1007B0002A95E2F78170907029813A812E193F09BC
:1007C00002C0880F991F2A95E2F7AA2797FDA095E6
:1007D000BA2F482A592A6A2A7B2A0894E108F10884
:1007E00001091109089481089108A108B108E114D0
:1007F000F1040105110521F6B201C3010F900F901C
:100800000F900F90CF91DF911F910F91FF90EF907C
:10081000DF90CF90BF90AF909F908F907F906F9020
:100820005F904F903F902F900895FC01848181FF4D
:1008300007C02081318142815381B901CA010895E5
:1008400020E030E040E050E0B901CA010895DF92B5
:10085000EF92FF920F931F93DF93CF9300D000D0BE
:1008600000D0CDB7DEB7222309F03FC08064898372
:10087000872F9927AA27BB278A83CB01AA27BB27C3
:100880008B83BB27A72F962F852F8C834D8380E0EA
:1008900015E0D12E7E010894E11CF11C8E838701A6
:1008A000F80181918F010E94EF00802F8E198D1524
:1008B000B8F38FEF0E94EF008F3F49F411E08FEF04
:1008C0000E94EF001F5F113811F08F3FC1F3269691
:1008D0000FB6F894DEBF0FBECDBFCF91DF911F9151
:1008E0000F91FF90EF90DF90089580648983872FA8
:1008F0009927AA27BB278A83CB01AA27BB278B83EB
:10090000BB27A72F962F852F8C834D837E010894BC
:10091000E11CF11CF70130E0BE016A5F7F4F49E046
:10092000208190E001C0220F330F832F822787FDA3
:1009300034279F5F9830B9F73196E617F70781F7AC
:10094000832F880F8160B6E0DB2EA8CFBF92CF92B5
:10095000DF92EF92FF920F931F93CF93DF93C82EF6
:10096000B62E662309F050C0EE24FF248701DD2453
:10097000D394C0E0D0E01EC087E340E050E060E0E8
:1009800070E021E00E94270487FD02C082FF35C08D
:1009900090E087FD1AC0DD2019F1BB2039F5E12C6C
:1009A000F12C30E2032F112D2196DD2487E2C03196
:1009B000D80759F0CC2001F781E0B801A70121E068
:1009C0000E94270490E087FFE6CF80E0DF91CF917F
:1009D0001F910F91FF90EF90DF90CF90BF900895FF
:1009E00081709070892B01F781E0F0CFE12CF12C20
:1009F00020E2022F20E4122FD7CF89E2B801A7010D
:100A000021E00E942704C4CFE12CF12C012D40E409
:100A1000142FADCF2F923F924F925F926F927F92A1
:100A20008F929F92AF92BF92CF92DF92EF92FF92FE
:100A30000F931F93CF93DF935C017A018B0188E0C2
:100A400089B9D5011496EC91E1FF56C0B901A8010E
:100A50009701F9E0220F331F441F551FFA95D1F774
:100A60006B01922E832E742E652E5E2C4F2C302E11
:100A7000212EE12C5AE0F52EE60EF71EE0FF37C0DE
:100A8000452D542D632D722D88E120E00E9427040E
:100A900087FD32C08FEF0E94EF008EEF0E94EF00C3
:100AA0008601C0E0D0E0F80181918F010E94EF0043
:100AB0002196F2E0C030DF07B1F780E092E0C80E87
:100AC000D91E8FEF0E94EF00182F8F3FD1F38FEFC9
:100AD0000E94EF008F3FD9F71F71153031F1CE140E
:100AE000DF04F9F0D5011496EC91E0FDC9CF492D52
:100AF000582D672D762DC8CF90E0892FDF91CF91AB
:100B00001F910F91FF90EF90DF90CF90BF90AF902B
:100B10009F908F907F906F905F904F903F902F901D
:100B2000089590E088E089B9E8CF91E0FBCFEF929B
:100B3000FF921F93CF93DF937C01EB0118EC04C06D
:100B40009E3F79F0115019F18FEF0E94EF00982F1E
:100B5000807FB1F7892FDF91CF911F91FF90EF90A8
:100B600008951123A1F0F7019083209741F08FEFB2
:100B70000E94EF00F70181937F012197C1F790E078
:100B8000892FDF91CF911F91FF90EF9008959FEFF4
:100B9000892FDF91CF911F91FF90EF9008957F9261
:100BA0008F929F92AF92BF92CF92DF92EF92FF927D
:100BB0000F931F93CF93DF93EC01790184E089B900
:100BC0002C8121FF30C0DB01CA0119E0880F991F79
:100BD000AA1FBB1F1A95D1F710E0782E892E9A2EE6
:100BE000AB2EB42EC52ED62E072F20FF17C04B2DAF
:100BF0005C2D6D2D702F81E120E00E94270487FD80
:100C000012C0C70160E072E00E9497058823F9F0E6
:100C10001F5F1530C1F02C8120FDE9CF472D582DE5
:100C2000692D7A2DE8CF90E0892FDF91CF911F9128
:100C30000F91FF90EF90DF90CF90BF90AF909F907B
:100C40008F907F90089590E084E089B9EDCF91E096
:100C5000FBCF2F923F924F925F926F927F928F9233
:100C60009F92AF92BF92CF92DF92EF92FF920F933B
:100C70001F93DF93CF93CDB7DEB766970FB6F89487
:100C8000DEBF0FBECDBF1C01DC0114968C91149702
:100C9000897F14968C931092000110E08FEF0E94D0
:100CA000EF001F5F1A30D1F700E010E01A821982BE
:100CB00089819A8101969A83898389819A81019792
:100CC0009A8389832E9A1A82198289819A81019640
:100CD0009A83898389819A8101979A8389832F9A3C
:100CE0001A82198289819A8101969A8389838981DE
:100CF0009A8101979A8389832F981A821982898110
:100D00009A8101969A83898389819A8101979A832E
:100D1000898380E040E050E060E070E021E00E94E4
:100D200027040F5F1F4FB2E009351B0709F45DC0B0
:100D3000813009F0BBCF88E04AEA51E060E070E022
:100D400021E00E94270487FD50C090E0969587958A
:100D50009695879501E010E0802791278170F10139
:100D600024812E7F282B248387E340E050E060E03D
:100D700070E021E00E94270487FD37C090E096953F
:100D8000879596958795802791278170880F880F82
:100D9000D10114962C9114972B7F282B14962C9309
:100DA00022FD3DC080E061E00E94A604882309F492
:100DB00044C08BE340E050E060E070E021E00E943E
:100DC000270487FD12C089E040E050E060E070E059
:100DD00020E00E94270487FD08C0CE01039660E151
:100DE00070E00E949705882379F180E066960FB63F
:100DF000F894DEBF0FBECDBFCF91DF911F910F9151
:100E0000FF90EF90DF90CF90BF90AF909F908F902A
:100E10007F906F905F904F903F902F90089581E06A
:100E200061E00E94A604882321F681E060E00E9430
:100E3000A604882309F0BDCFD8CF60E00E94A604A5
:100E4000882309F0B6CFD1CFF1018480CE0103967B
:100E500040E150E060E070E00EE710E020E030E0BC
:100E6000B2E0CB2ED12CE12CF12C0E94890361152C
:100E700071058105910541F082FC9BC063307105CD
:100E80008105910508F095C0CE01039640E150E040
:100E900060E070E00EE310E020E030E0ACE0CA2E4D
:100EA000D12CE12CF12C0E9489034B015C01CE0175
:100EB000039640E150E060E070E00FE210E020E0D7
:100EC00030E0F3E0CF2ED12CE12CF12C0E948903ED
:100ED0002B013C01CE01039640E150E060E070E060
:100EE00000E510E020E030E0E4E0CE2ED12CE12C53
:100EF000F12C0E94890381E090E0A0E0B0E004C002
:100F0000880F991FAA1FBB1F6A95D2F78B8B9C8BEA
:100F1000AD8BBE8B750164010894C11CD11CE11C12
:100F2000F11CA2E0B0E04A0E5B1E04C0CC0CDD1C3C
:100F3000EE1CFF1C4A94D2F709E010E020E030E0FC
:100F40008B899C8981709070892B09F03CC08B89BA
:100F50009C89AD89BE89B695A795979587958B8B0A
:100F60009C8BAD8BBE8B015010402040304041F730
:100F700000E010E0C701B6012B893C894D895E89EC
:100F80000E94156B04C096958795779567950A958D
:100F9000D2F7D1016D937D938D939C931397149603
:100FA0008C911497826014968C9381E08093000159
:100FB0001DCF6130710581059105F9F060E070E0A9
:100FC00080E090E0E6CF011511052105310581F2A1
:100FD000C60181709070892B31F0CCCFC601817031
:100FE0009070892B39F6F694E794D794C794015002
:100FF00010402040304091F7BBCFCE01039640E136
:1010000050E060E070E000E310E020E030E0E6E176
:10101000CE2ED12CE12CF12C0E9489030AE0660F20
:10102000771F881F991F0A95D1F7B3CF8091C00011
:1010300087FD04C02EEF3FEFC90108958091C600DF
:10104000282F30E0C9010895982F8091C00085FFB6
:10105000FCCF9093C60008951F920F920FB60F9287
:1010600011242F938F939F93AF93BF93209180056B
:10107000222399F08091C13B9091C23BA091C33B48
:10108000B091C43B0196A11DB11D8093C13B9093CB
:10109000C23BA093C33BB093C43B81E0282720937D
:1010A0008005BF91AF919F918F912F910F900FBEAF
:1010B0000F901F901895FC019081992371F08091F9
:1010C000C00085FFFCCF892F992787FD90958093DD
:1010D000C60091813196992391F708952091C13BE3
:1010E0003091C23B4091C33B5091C43B8091C13B86
:1010F0009091C23BA091C33BB091C43B28173907E4
:101100004A075B0759F7B901CA0108959F92AF9248
:10111000BF92CF92DF92EF92FF920F931F93CF93E4
:10112000DF935A016B01922EE701002301F599200C
:1011300079F481E0DF91CF911F910F91FF90EF90B3
:10114000DF90CF90BF90AF909F90089557016801B6
:10115000860175010894E11CF11C011D111DC601D9
:10116000B5010E94040189939A9481F7E2CF9920F6
:1011700019F4DFCF57016801860175010894E11C5D
:10118000F11C011D111D4991C601B5010E942001EC
:101190009A9481F7CECF1F93F894F894A89598E18C
:1011A0000FB6F89490936000109260000FBE85B760
:1011B000806885BF85BF1092C5003CE03093C400B5
:1011C0001092C00086E08093C2009093C10082ED2F
:1011D0009AE59093890080938800109280008BE0BC
:1011E0008093810022E020936F008FEF81B984B15A
:1011F0008F6384B9579A17B812B885B1807F85B9C3
:1012000085B1806385B95F9A18B884E197E7A6E64F
:10121000BFE48093C13B9093C23BA093C33BB09388
:10122000C43B8BE197EB90939900809398001092C8
:10123000900030939100209371008AB18C608AB93C
:10124000569884B1806C84B98BB1837F8BB985B19A
:101250008F7385B954985C9A80EB94E00197F1F70D
:1012600010E00E943D011F5F1830D9F778941F915C
:1012700008952F923F924F925F926F927F928F923A
:101280009F92AF92BF92CF92DF92EF92FF920F9315
:101290001F93DF93CF9300D000D00F92CDB7DEB76E
:1012A0000E94CB081E010894211C311CC1010E9420
:1012B0002906882391F493E7E5E2F1E08091C000EC
:1012C00085FFFCCF892F992787FD90958093C600D5
:1012D0009081992311F03196F1CF81E895E06BEA86
:1012E00073E546E858E026E138E004E218E0B8ED9E
:1012F000EB2EB9E0FB2E61010E94CF514C994FC0FB
:10130000812C912CA0EEAA2EA0EABA2E40E250E049
:101310006CE070E02A013B010894411C511C611CE7
:10132000711CC10129E835E00E94CF05F9E8CF2EF4
:10133000F5E0DF2EC501B4017B018C010894E11CAE
:10134000F11C011D111DD6014D916D010E9420015E
:10135000C801B701B9E8CB16B7E0DB0669F780E052
:1013600092E0A0E0B0E0880E991EAA1EBB1E90E29B
:10137000491690E159069CE0690690E0790619F05B
:10138000B301A201C7CF80E092E0A0EEB0EA809363
:10139000D9079093DA07A093DB07B093DC0781E8C5
:1013A00095E040E050E060E070E00E94C850FFCF60
:1013B0000F93CF93DF93E9010130D9F0013048F06A
:1013C000023009F120E030E0C901DF91CF910F91A7
:1013D00008954115510561057105F9F4009769F10A
:1013E0000E941504688379838A839B8321E030E01F
:1013F000EBCF9E010E94CF05282F30E0C901DF917D
:10140000CF910F9108959E010E940A05282F30E088
:10141000C901DF91CF910F910895413051056105C8
:10142000710581F680E092E0A0E0B0E088839983C6
:10143000AA83BB8321E030E0C7CF188219821A82C9
:101440001B8221E030E0C0CF6115710529F0FC015D
:10145000119261507040E1F70895EF92FF920F935F
:101460001F93CF93DF93EC0179018A012115310598
:1014700041055105E9F020E030E040E050E0EE2782
:10148000FF27E21BF30BDE01AE0FBF1FE60FF71FB6
:1014900080818C932150304040405040DA01C90196
:1014A0008E0D9F1DA01FB11F0097A105B10539F733
:1014B000DF91CF911F910F91FF90EF900895AF9220
:1014C000BF92CF92DF92EF92FF920F931F93DF9321
:1014D000CF93CDB7DEB760970FB6F894DEBF0FBEDF
:1014E000CDBF6B017C01188A8FE0A82EB12CAC0E09
:1014F000BD1E00E0C701B6012AE030E040E050E048
:101500000E94346B162F105DC701B6012AE030E04F
:1015100040E050E00E94346BC901DA016C017D01AA
:10152000F5011083C114D104E104F10431F00F5F1F
:101530000894A108B1080F30E9F62EE030E0201B36
:101540003109CE010196820F931F0E945B086096BD
:101550000FB6F894DEBF0FBECDBFCF91DF911F91C4
:101560000F91FF90EF90DF90CF90BF90AF900895D4
:10157000DF93CF93CDB7DEB729970FB6F894DEBFD0
:101580000FBECDBF1986FE01389606C0295C2083A8
:101590003197EC17FD0789F0262F2F7034E09695D0
:1015A0008795779567953A95D1F72A3078F7205D3A
:1015B00020833197EC17FD0779F7CE0101960E9441
:1015C0005B0829960FB6F894DEBF0FBECDBFCF9152
:1015D000DF910895DC01603188F46F30D1F0E62F9F
:1015E000F0E0EE0FFF1FEE0FFF1FEA0FFB1F208141
:1015F000318142815381B901CA010895603151F1AD
:10160000613189F120E030E040E050E0B901CA01E9
:101610000895A05CBF4F2D913D914D915C91139722
:10162000A054B04095E056954795379527959A95E3
:10163000D1F72170307040705070DC968D919D9183
:101640000D90BC91A02D280F391F4A1F5B1FB901B7
:10165000CA010895A05CBF4F2D913D914D915C91C1
:10166000B901CA010895AC5BBF4F2D913D914D91D9
:101670005C91B901CA010895EF92FF920F931F93F5
:10168000CF93DF93EC0179018A016F3099F0E62F57
:10169000F0E0EE0FFF1FEE0FFF1FE80FF91FE082D3
:1016A000F18202831383DF91CF911F910F91FF90FD
:1016B000EF900895DA01C9018E7F8CAF9DAFAEAF78
:1016C000BFAFFE01E05CFF4F208131814281538139
:1016D0002F7D2083318342835383C70181709070B3
:1016E000892B69F4E1FEDFCFC05BDE4FE881F98131
:1016F000C055D140CE0163E371E00995D4CF20629B
:101700002083318342835383DF91CF911F910F91C7
:10171000FF90EF900895DC016331B1F16431A8F0DE
:101720006B3141F16F31E1F06731F9F0A05BBE4FF1
:10173000ED91FC911197A055B140CD0165E671E0A6
:101740000995E0E0F0E0CF0108956131C1F0623128
:1017500028F0FC01E858FF4FCF010895603131F7C0
:10176000FD01E85BFF4FCF010895FC01E05AFF4FF8
:10177000CF010895FC01E459FF4FCF010895FC010A
:10178000EC57FF4FCF010895FC01EC5AFF4FCF01FA
:101790000895DF92EF92FF920F931F93CF93DF9301
:1017A0008C01D62E30E4E32EF12CE80EF91EE70171
:1017B00068816F716D1509F45FC0613109F464C00F
:1017C000E1E1DE1609F460C0C8010E948B0BEC0158
:1017D000C8016D2D0E948B0B9C01C817D90709F415
:1017E0004BC0F80184A995A9A6A9B7A988839983B4
:1017F000AA83BB8380AD91ADA2ADB3AD8C839D8335
:10180000AE83BF83EC5BFF4F80819181A281B38166
:1018100088879987AA87BB87E90188819981AA81EE
:10182000BB81E8018CAB9DABAEABBFABE9018C815A
:101830009D81AE81BF81E80188AF99AFAAAFBBAFF0
:10184000E90188859985AA85BB8580839183A283D8
:10185000B3832D2D30E040E050E0F701808191818D
:10186000A281B381807E282B392B4A2B5B2BE70189
:10187000288339834A835B83DF91CF911F910F9136
:10188000FF90EF90DF900895E801C057DF4FF80117
:1018900070E0288139814A815B8180A191A1A2A158
:1018A000B3A189939993A993B99320A331A342A398
:1018B00053A37F5F3496753061F786CF2F923F92A6
:1018C0004F925F926F927F928F929F92AF92BF9250
:1018D000CF92DF92EF92FF920F931F93DF93CF93FC
:1018E000CDB7DEB72A970FB6F894DEBF0FBECDBFD7
:1018F0008C5A9E4FDC01ED91FC911197A455B1409B
:10190000BA87A987309719F0CD012C2D0995EE20C3
:1019100009F090C0E985FA85E65BFE4F20803180B2
:1019200042805380EA54F140FA87E98784AD95AD4F
:10193000A6ADB7AD89839A83AB83BC83E05CFF4FD0
:10194000F887EF83A080B180C280D380A5FC6CC0F3
:1019500064E0662E712C812C912C40E6E42E4FEF32
:10196000F42E4FEF042F4FEF142FEA20FB200C2111
:101970001D2187E990E0A0E0B0E0E82AF92A0A2BCF
:101980001B2B6E2D6F7189859A850E94C90BAF81C3
:10199000B885ED92FD920D931C931397E985FA8516
:1019A000EC5BFF4FDF01A082B182C282D382A454DC
:1019B000B040BA87A98789819A81AB81BC81680EC2
:1019C000791E8A1E9B1EA985BA85D8966D927D9236
:1019D0008D929C92DB9780E190E0A0E0B0E0280E31
:1019E000391E4A1E5B1EA985BA85DC962D923D9252
:1019F0004D925C92DF972A960FB6F894DEBF0FBE29
:101A0000CDBFCF91DF911F910F91FF90EF90DF90AD
:101A1000CF90BF90AF909F908F907F906F905F908E
:101A20004F903F902F90089556E0652E712C812C99
:101A3000912C93CFE985FA85E65BFE4F608071803B
:101A400082809380EA54F140FA87E9878CE090E045
:101A5000A0E0B0E0680E791E8A1E9B1EA4ACB5AC57
:101A6000C6ACD7AC84E090E0A0E0B0E0A80EB91E10
:101A7000CA1EDB1EE05CFF4FFE83ED8320803180B9
:101A80004280538070E6E72E7FEFF72E7FEF072F1F
:101A90007FEF172FE220F3200421152187E990E042
:101AA000A0E0B0E0E82AF92A0A2B1B2B6E2D6F71FB
:101AB00089859A850E94C90BAD81BE81ED92FD9208
:101AC0000D931C931397E985FA85EC5BFF4FDF01BB
:101AD0002082318242825382A454B040BA87A987BF
:101AE000FD01A0AEB1AEC2AED3AEDC966D927D92DA
:101AF0008D929C92DF977FCFDC01662369F04423AF
:101B000049F5FC01EA55FF4F80819181009759F119
:101B10000197918380830895442399F4FC01EC5547
:101B2000FF4F80819181009799F7A05BBE4FED91A7
:101B3000FC911197A055B140CD016CEB71E0099576
:101B40000895FC01EC55FF4F8081918101969183AE
:101B500080830895FC01EA55FF4F808191810196B1
:101B6000918380830895A05BBE4FED91FC91119706
:101B7000A055B140CD0168E971E009950895262F7F
:101B800030E0F901EE0FFF1FEE0FFF1FEE0FFF1FFA
:101B9000220F331FE20FF31FE80FF91FE655FF4F27
:101BA000DA018AE00D9001928150E1F70895FC017D
:101BB000E65BFE4F40835183628373830895FC018B
:101BC000E855FF4F808191810895FC01E855FF4F52
:101BD0007183608308958A5A9E4F0E94D05508955C
:101BE0008A5A9E4F0E945E5508952F923F924F92BF
:101BF0005F926F927F928F929F92AF92BF92CF929D
:101C0000DF92EF92FF920F931F93DF93CF93CDB7A5
:101C1000DEB7C557D0400FB6F894DEBF0FBECDBFBC
:101C200062969FAF8EAF629766964CAF5DAF6EAF18
:101C30007FAF66976A960CAF1DAF2EAF3FAF6A9726
:101C40006B96EFAE6B976C96CFAE6C976D96AFAE12
:101C50006D97805C9F4FE0969FAF8EAFE097DC0161
:101C6000AD90BD90CD90DC90D601C5018F71907084
:101C7000A070B07080319105A105B10509F473C160
:101C80001EAA4F97A105B10509F46AC166968CADED
:101C90009DADAEADBFAD66977DE1B695A795979525
:101CA00087957A95D1F783309105A105B10509F49F
:101CB0009FC784309105A105B10508F433C1853073
:101CC0009105A105B10509F4A9C785309105A105C4
:101CD000B10508F44BC186309105A105B10509F4A1
:101CE000C7C70797A105B10509F4ADC766960CAD46
:101CF0001DAD2EAD3FAD6697007010702070307135
:101D000040E080E0011511052105310539F044233B
:101D100029F490E0882309F491E0892F882309F4BD
:101D2000E6C066964CAC5DAC6EAC7FAC6697872D1A
:101D30009927AA27BB278F709070A070B070883049
:101D40009105A105B10508F06AC286309105A1058B
:101D5000B10508F4D9C463963FAC639734FE35C12E
:101D600066960CAD1DAD2EAD3FAD66970B5B1B4B64
:101D70002B4B374FE1F46C965FAD6C975523B9F060
:101D800062966EAD7FAD62976E5A7E4FDB01ED912C
:101D9000FC911197A255B1406296BFAFAEAF62976A
:101DA000309729F0CD010995882309F0A0C080EE75
:101DB00091E00E945B0866966CAD7DAD8EAD9FADE7
:101DC00066970E94B80A81EF91E00E945B086A96CC
:101DD0006CAD7DAD8EAD9FAD6A970E94B80A8DEF58
:101DE00091E00E945B08E096EEADFFADE097608168
:101DF0007181828193810E94B80A87E092E00E94FB
:101E00005B0862960EAD1FAD6297065B1E4FD80150
:101E10002D903D904D905C901397AA54B1406296DE
:101E2000BFAFAEAF62976B96BFAD6B97BB2309F0A8
:101E3000AFC2B4E06B2E712C812C912CE096EEADEC
:101E4000FFADE097E080F18002811381F0E6AF2ED4
:101E5000FFEFBF2EFFEFCF2EFFEFDF2EAE20BF2014
:101E6000C022D1222BE930E040E050E0A22AB32A80
:101E7000C42AD52A6A2D6F7162968EAD9FAD629786
:101E80000E94C90BE096AEADBFADE097AD92BD929A
:101E9000CD92DC9213976296EEADFFAD6297EC5B4C
:101EA000FF4FDF01E082F18202831383A454B0402C
:101EB0006A96ACACBDACCEACDFAC6A976A0C7B1C4E
:101EC0008C1C9D1CD8966D927D928D929C92DB9776
:101ED000E4E06E2E712C812C912C260C371C481CB2
:101EE000591CDC962D923D924D925C92DF9780E0DA
:101EF000CB58DF4F0FB6F894DEBF0FBECDBFCF91EA
:101F0000DF911F910F91FF90EF90DF90CF90BF90E6
:101F1000AF909F908F907F906F905F904F903F9089
:101F20002F90089581309105A105B10509F44AC6A5
:101F30000297A105B10598F1D601C5018827B7FD23
:101F400083959927AA27BB2766960CAD1DAD2EADAC
:101F50003FAD6697007010702070307140E0D2CEB7
:101F6000E1E0EEAB93CEB1E0BEAB90CED5FE28C69D
:101F7000D601C5012EE1B695A795979587952A9527
:101F8000D1F78095817066960CAD1DAD2EAD3FAD3D
:101F90006697007010702070307140E0B3CED601AB
:101FA000C5016EE1B695A795979587956A95D1F786
:101FB000817066960CAD1DAD2EAD3FAD669700707D
:101FC00010702070307140E09DCE442311F00C94CD
:101FD000741866962CAD3DAD4EAD5FAD6697CA01E7
:101FE000AA27BB27BFE0FB2EF82251FF02C00C94AA
:101FF000221939014A014FEF5FE060E070E064228E
:1020000075228622972266960CAD1DAD2EAD3FAD92
:10201000669726FD02C010E1F12A66962CAD3DAD13
:102020004EAD5FAD669744FF02C030E2F32A66967C
:102030004CAD5DAD6EAD7FAD669767FD08C0909409
:10204000809470946094611C711C811C911C669634
:102050006CAD7DAD8EAD9FAD669790FF02C00C94C8
:1020600014191B821C821D821E8285FF02C070E42F
:10207000F72A2B813C814D815E81F7FC71CE1F2DAB
:10208000F6FE03C06C961FAE6C9714FF02C00C9452
:102090005F1ADD24D3949F2D9F709BA3A92FB0E0DE
:1020A000AA0FBB1FAA0FBB1FAC96BFAFAEAFAC97BA
:1020B0006296EEADFFAD6297EA0FFB1F2080318084
:1020C000428053809F3011F40C94801B6B96FFADBF
:1020D0006B97FF2369F06D96AFAC6D97AA2041F026
:1020E0006CEF7FEF8FEF9FEF262237224822592295
:1020F00015FF02C00C94901B6114710481049104BB
:1021000011F00C94721B1DA61EA61FA618AA320160
:102110002101420E531E641E751E81E0D81611F473
:102120000C943B1F66960CAD1DAD2EAD3FAD669772
:102130004CE036952795179507954A95D1F7669601
:102140000CAF1DAF2EAF3FAF669763968FAD639711
:102150008F70E82FF0E0EE0FFF1FEE0FFF1F62966B
:102160002EAD3FAD6297E20FF31F20813181428196
:1021700053818F3011F40C9404206B967FAD6B97D4
:10218000772329F06D968FAD6D9781112C7F2B836E
:102190003C834D835E8303E0802E912C8C0E9D1E2C
:1021A0006296AEADBFAD6297A25BBE4FED91FC9162
:1021B0001197AE54B1406296BFAFAEAF6297CD01FA
:1021C000B401A30192010D2DEE24E3946C96CFACE3
:1021D0006C975E010894A11CB11C0995882311F429
:1021E0000C948C1FF7FE83CE8F2D8F708F3011F4DF
:1021F0000C94AC29E82FF0E0EE0FFF1FEE0FFF1F4D
:1022000062962EAD3FAD6297E20FF31F4DA55EA51E
:102210006FA578A9408351836283738368CE8C3025
:102220009105A105B10508F0B9C00A97A105B1054E
:1022300008F40BC666968CAD9DADAEADBFAD66978E
:10224000B07066962CAC3DAC4EAC5FAC669747FC6C
:10225000BF6F6B963FAC6B97332009F058C78C016A
:102260009D01000F111F221F331F000F111F221F7E
:10227000331F88E090E0A0E0B0E078018901E80E2B
:10228000F91E0A1F1B1F6A964CAC5DAC6EAC7FAC8E
:102290006A97E40CF51C061D171D442309F46BC74F
:1022A00066966CAC7DAC8EAC9FAC669790FE09C018
:1022B00082E0882E912CA12CB12CE80CF91C0A1D6F
:1022C0001B1D6B969FAC6B97992011F00C94DA1A3A
:1022D00084E090E0A0E0B0E06A96ACACBDACCEACDF
:1022E000DFAC6A978A0D9B1DAC1DBD1D6296EEADDD
:1022F000FFAD629780AF91AFA2AFB3AFE096AEAD46
:10230000BFADE0978C9185FD09C0B1E02B2E312C3B
:10231000412C512CE228F32804291529D801C701A2
:102320008E7F6296EEADFFAD629784AF95AFA6AF9C
:10233000B7AFE096AEADBFADE0972D913D914D9119
:102340005C9113972F7DFD0120833183428353835A
:10235000C70181709070892B09F005C7E1FEC7CDD8
:102360006296EEADFFAD6297E05BFE4F6296FFAF07
:10237000EEAF62970190F081E02D62960EAD1FAD39
:10238000629700551140C80163E371E00995AFCD34
:10239000A2E06A2E712C812C912C50CD8E309105AB
:1023A000A105B10509F490C48E309105A105B105D0
:1023B00008F478C00F97A105B10509F0D1CC4423EA
:1023C00009F0CECC62960EAD1FAD6297065B1E4F34
:1023D000D8012D903D904D905C901397AA54B14038
:1023E0006296BFAFAEAF62976B96BFAD6B97BB23E4
:1023F00011F00C94ED1A24E0622E712C812C912C9A
:1024000080E6E82E8FEFF82E8FEF082F8FEF182F32
:10241000EA20FB200C211D2123E930E040E050E0C0
:10242000E22AF32A042B152B6E2D6F7162968EAD66
:102430009FAD62970E94C90BE096AEADBFADE0972D
:10244000ED92FD920D931C9313976296EEADFFAD46
:102450006297EC5BFF4FDF01A082B182C282D38220
:10246000A454B0406A96ACACBDACCEACDFAC6A97BD
:102470006A0C7B1C8C1C9D1CD8966D927D928D9253
:102480009C92DB9718E0612E712C812C912C260CEC
:10249000371C481C591CDC962D923D924D925C9243
:1024A000DF9725CD66960CAD1DAD2EAD3FAD669781
:1024B00010702070307066962CAC3DAC4EAC5FACAA
:1024C0006697C201AA27BB27FFE09F2E982250FEE5
:1024D00031C6592D50616696ACACBDACCEACDFAC0C
:1024E0006697C5FE02C0592D5063252E3324E0E4C3
:1024F000AE2EB12CA220B32056FD17C0000F111F25
:10250000221F331F000F111F221F331F6696CCACF2
:10251000DDACEEACFFAC6697E7FC07C030952095CC
:10252000109501951F4F2F4F3F4F0B831C832D8319
:102530003E8366964CAC5DAC6EAC7FAC6697BB27B9
:10254000A72D962D852D682F6F706E3008F442C62A
:102550006C965FAC6C97552009F402CC57FF02C013
:102560000C94F31D0A835F70598F452E5524440C3B
:10257000551C440C551CA8965FAE4EAEA8976296AB
:10258000EEADFFAD6297E40DF51DC080D180E28015
:10259000F3805F3011F40C947C1F6B967FAC6B97CB
:1025A000772069F06D968FAC6D97882041F08CEFA5
:1025B0009FEFAFEFBFEFC822D922EA22FB22862F7E
:1025C00090E0FC01EE0FFF1FEE0FFF1FEE0FFF1F4D
:1025D000880F991FE80FF91F6296AEADBFAD6297E5
:1025E000EA0FFB1FE255FF4F408051802C965FAEF3
:1025F0004EAE2C97452809F4B3CB26013701400E87
:10260000511E621E731E862F90E0FC01EE0FFF1F0D
:10261000EE0FFF1FEE0FFF1F880F991FE80FF91F26
:10262000EA0FFB1FEE54FF4F6081718124FE02C050
:102630000C94EB1DFC2D6E96DFAE6E975E2DEF2D8C
:10264000AB2811F00C94E71DA0E0B0E066960CAD4D
:102650001DAD2EAD3FAD669786E136952795179552
:1026600007958A95D1F701706696CCACDDACEEACDF
:10267000FFAC669794E1F694E794D794C7949A9543
:10268000D1F7C09488248394C82066968CAC9DAC06
:10269000AEACBFAC66978CE0B694A7949794879441
:1026A0008A95D1F71FE0D12E8D2062968EAD9FAD19
:1026B0006297202F0C2DE82CAF2E6E96BFAC6E9734
:1026C000C52EDE2E4D012C96AEADBFAD2C97FD0173
:1026D0000995882309F444CB25FE09CCB98DBF3078
:1026E00011F40C940F2A62962EAD3FAD6297A89616
:1026F0004EAD5FADA897240F351FD9014D925D9265
:102700006D927C921397F3CB84309105A105B105AE
:1027100008F05BCC0297A105B10508F478C1442309
:1027200009F01ECB66968CAD9DADAEADBFAD669784
:1027300080709070A079B17080509040A040B140FE
:1027400011F40C94161D66968CAD9DADAEADBFAD6B
:10275000669764E1B695A795979587956A95D1F7A1
:10276000782F717022967FAF2297D601C5015CE168
:10277000B695A795979587955A95D1F7E82FE1706B
:102780002396EFAF2397D601C5014DE1B695A795E6
:10279000979587954A95D1F7182F117066962CACAE
:1027A0003DAC4EAC5FAC669751FEB5C5D201C101E0
:1027B00037E0B695A795979587953A95D1F7282F45
:1027C0002E71420131014FEF50E060E070E0642271
:1027D000752286229722222309F46DC630E0B401C7
:1027E000A301022E04C076956795579547950A94E4
:1027F000D2F780E290E0821B930B04C0660C771C3A
:10280000881C991C8A95D2F7642A752A862A972AE9
:10281000D401C3018827B7FD83959927AA27BB2731
:1028200024968FAF249766964CAD5DAD6EAD7FADAF
:102830006697CB01AA27BB27682F6F7066962CADD1
:102840003DAD4EAD5FAD669705E156954795379521
:1028500027950A95D1F72F7030704070507027304F
:1028600031054105510511F40C94C227283031057A
:102870004105510508F0B8C6233031054105510521
:1028800011F40C94D328243031054105510510F082
:102890000C947D22213031054105510511F40C9431
:1028A0000C29223031054105510510F40C944627BE
:1028B000E62FF0E0EE0FFF1FEE0FFF1F6296EEAC6B
:1028C000FFAC6297EE0DFF1DE080F1800281138165
:1028D0006F3011F40C9464316B963FAD6B973323DA
:1028E00069F06D964FAD6D97442341F06CEF7FEF2B
:1028F0008FEF9FEFE622F722082319231701280103
:10290000261837084808590822967FAD2297772362
:1029100011F40C940E2FD201C1018E259F25A02702
:10292000B127A80197012625372548255925822357
:102930009323A423B5238827B7FD83959927AA2736
:10294000BB2723968FAF239724961FAE2497E614B8
:10295000F7040805190520F081E024968FAF24972D
:1029600081E06696ECACFDAC0EAD1FAD66974CE019
:1029700016950795F794E7944A95D1F76696ECAECD
:10298000FDAE0EAF1FAF669763960FAD63970F70E6
:10299000420131014EA8442021F40F3011F40C946F
:1029A000D523A60195015F7061147104810491041F
:1029B00011F00C94251F50642496FFAD2497F1115B
:1029C000506223962FAC239721105061E096AEAD54
:1029D000BFADE0972D933D934D935C931397882360
:1029E00009F485CA0F3011F40C949D1FE02FF0E01C
:1029F000EE0FFF1FEE0FFF1F62962EAC3FAC6297EB
:102A0000E20DF31D608271828282938270CA442338
:102A100009F0A6C966962CAD3DAD4EAD5FAD66978B
:102A200020793070407050702039310541055105D2
:102A300009F4FCC666968CAD9DADAEADBFAD669794
:102A400080709070A079B17080509040A040B140EB
:102A500009F079CE66968CAD9DADAEADBFAD6697F3
:102A600064E0B695A795979587956A95D1F78F708D
:102A70009070A070B07085309105A105B10511F47A
:102A80000C94862D86309105A105B10510F00C94AB
:102A9000F92581309105A105B10561F081309105DD
:102AA000A105B10510F40C94252D0397A105B105DE
:102AB00009F056C966962CAC3DAC4EAC5FAC66973F
:102AC00046FC02C00C946032D201C101807F9F702D
:102AD000BF7080519F40AF46B14009F041C9639635
:102AE0008FAD63978F70E82FF0E0EE0FFF1FEE0FB2
:102AF000FF1F62962EAD3FAD6297E20FF31FE0809D
:102B0000F180028113818F3011F40C94773B6B9626
:102B10004FAD6B97442369F06D965FAD6D9755236C
:102B200041F06CEF7FEF8FEF9FEFE622F722082353
:102B3000192320E030E040E050E860E007C06F5F1C
:102B4000603271F05695479537952795DA01C9019E
:102B50008E219F21A023B1230097A105B10579F310
:102B600066968CAD9DADAEADBFAD66973CE0B695BB
:102B7000A795979587953A95D1F766968CAF9DAFB7
:102B8000AEAFBFAF669763960FAD63970F70C62E5B
:102B9000DD24EE24FF240F3011F40C94FB2BE02FE6
:102BA000F0E0EE0FFF1FEE0FFF1F62962EAD3FAD60
:102BB0006297E20FF31FC082D182E282F38297C94B
:102BC00080E0E1C9D601C5015DE1B695A79597956D
:102BD00087955A95D1F7817066960CAD1DAD2EADD7
:102BE0003FAD6697007010702070307140E08AC869
:102BF000D601C5013CE1B695A795979587953A957D
:102C0000D1F7817066960CAD1DAD2EAD3FAD6697C8
:102C1000007010702070307140E074C8A6019501FA
:102C2000222757FD2395332744275527D601C50171
:102C30001CE1B695A795979587951A95D1F780953C
:102C400081708227A0C940E066960CAD1DAD2EAD07
:102C50003FAD6697007010702070307166962CAC96
:102C60003DAC4EAC5FAC669754FC41E081E04AC895
:102C7000A6019501222757FD239533274427552781
:102C8000D601C501FCE1B695A79597958795FA956C
:102C9000D1F741E050E060E070E084279527A62757
:102CA000B7278170821709F48BCFD601C501EEE1F9
:102CB000B695A79597958795EA95D1F78427952797
:102CC000A627B72781705FC966962CAC3DAC4EAC89
:102CD0005FAC6697BB27A52D942D832D282F2F70D1
:102CE0002E3008F01FC262960EAD1FAD62970855D8
:102CF0001F4FD8018D919C911197A85AB0406296B0
:102D0000BFAFAEAF6297A0E0B0E0022E04C0B695B0
:102D1000A795979587950A94D2F781709070892B23
:102D200009F41EC86396BFAD6397B4FFCCC3822F6E
:102D300090E0FC01EE0FFF1FEE0FFF1FEE0FFF1FD5
:102D4000880F991FE80FF91F62962EAC3FAC62976F
:102D5000E20DF31DE655FF4F408051802A965FAE8D
:102D60004EAE2A97452811F40C94B00E822F90E0B5
:102D7000FC01EE0FFF1FEE0FFF1FEE0FFF1F880F6E
:102D8000991FE80FF91FE20DF31DEE54FF4F60810C
:102D9000718166968CAD9DADAEADBFAD669724E1F9
:102DA000B695A795979587952A95D1F7282F2170E5
:102DB0006696ECACFDAC0EAD1FAD669785E1169541
:102DC0000795F794E7948A95D1F717E0512EE520FF
:102DD00066962CAC3DAC4EAC5FAC6697BCE05694AE
:102DE000479437942794BA95D1F7AFE06A2E2620FE
:102DF00066968CAD9DADAEADBFAD66975D01CC2442
:102E0000DD24A62063963FAD63973F703C014D01E2
:102E1000E5E09694879477946794EA95D1F797E0E4
:102E2000692262968EAD9FAD62970E2DE22CCA2C60
:102E3000A32E862C2A96AEADBFAD2A97FD0109952B
:102E4000882311F40C94B00E52C8442311F00C9452
:102E5000B00E66962CAC3DAC4EAC5FAC6697C20132
:102E6000AA27BB27AFE0FA2EF82246FE03C0F0E8FF
:102E70003F2EF32866964CAC5DAC6EAC7FAC66978B
:102E800065FE03C0E0E45E2EF52866966CAC7DAC72
:102E90008EAC9FAC669787FE03C070E1772EF72853
:102EA00066968CAC9DACAEACBFAC6697B0FE03C072
:102EB00060E2962EF928F7FC05C766968CAD9DADAD
:102EC000AEADBFAD669754E1B695A795979587953A
:102ED0005A95D1F7DD24D394D8220F2D0F700E8F81
:102EE000202F30E0220F331F220F331FAA963FAF4F
:102EF0002EAFAA976296EEADFFAD6297E20FF31F79
:102F00004081518162817381498B5A8B6B8B7C8BA1
:102F10000F3009F47BC76B963FAC6B97332071F091
:102F20006D964FAC6D97442049F009891A892B8919
:102F30003C890C7F098B1A8B2B8B3C8B64962EADB6
:102F40003FAD649738AF2FABDD2011F0F7FCF7C031
:102F50001DAA1A828F2D90E09CAB8BAB8071907074
:102F6000988B8F87AFA9B8AD1D0144245524629674
:102F7000EEADFFAD6297E85BFF4FFD8FEC8F629681
:102F80000EAD1FAD6297045B1F4F1B8F0A8F6988C0
:102F90007A888B889C8820E04BA95CA9407250708D
:102FA000E4965FAF4EAFE49762966EAD7FAD6297E9
:102FB000625B7E4FE6967FAF6EAFE6974BC0F7FC45
:102FC0002AC1E4960EAD1FADE497012B69F02F8561
:102FD0003889232B09F0BDC08CEF9FEFAFEFBFEF17
:102FE000680E791E8A1E9B1E10E0DD2009F411E098
:102FF000E696AEADBFADE697ED91FC9162968EADD3
:103000009FAD6297A401930104E0E12E6C96CFACD2
:103010006C975E010894A11CB11C0995882309F4E2
:103020008CC6E496EEADFFADE497EF2B69F4AF8468
:10303000B888AB2809F092C08CEF9FEFAFEFBFEFDD
:10304000680E791E8A1E9B1E2A812F5F2A832031DB
:1030500008F0E5C18F859889892B19F49FE0921BB0
:10306000292FD201C101022E04C0B695A7959795CC
:1030700087950A94D2F781709070892B29F3422F9B
:1030800050E0BA01660F771F660F771F6296AEADEC
:10309000BFAD62976A0F7B1FDD2009F090CFF7FE6E
:1030A00090CFBEA8BB2009F08CCF822F88508530EE
:1030B00090F4E096EEADFFADE09780819181A28122
:1030C000B3818F719070A070B0704197A105B10568
:1030D00011F40C94FD222D3009F42CC72E3009F088
:1030E00070CF6A8D7B8D6DCF66968CAD9DADAEAD8C
:1030F000BFAD66978070907FA077BD708050904F75
:10310000A045B54011F00C94B00E0C94770F8C01D3
:103110009D01000F111F221F331F84E090E0A0E0EB
:10312000B0E0ABC86C963FAC6C97332011F40C94B4
:10313000B00EF8CD45FE44C2592D5062D6C937FFB6
:1031400007CF1DAA5EA9552309F003CF61E06DAB3F
:1031500000CF84E090E0A0E0B0E042CF84E090E0D7
:10316000A0E0B0E06DCF20622D933D934D935C9332
:1031700013970C94770F66964CAC5DAC6EAC7FAC3D
:10318000669770FE24C06B965FAC6B97552009F074
:1031900054C684E090E0A0E0B0E06A966CAC7DACF0
:1031A0008EAC9FAC6A97860D971DA81DB91D6296BF
:1031B000EEADFFAD629780AF91AFA2AFB3AFE09637
:1031C000AEADBFADE097AD90BD90CD90DC90A5FECB
:1031D000A5C89BC862968EAD9FAD629788559F4FDC
:1031E000DC018D919C911197A85AB0406296BFAFB7
:1031F000AEAF6297A0E0B0E0062E04C0B695A795EA
:10320000979587950A94D2F781709070892B11F465
:103210000C94B00EA3C9EFA9F8ADF7FDD2CEFEA96C
:10322000FF2309F0CECE41CF66968CAD9DADAEADFD
:10323000BFAD6697A5FF4DC26B827C828D829E8258
:103240000C94391063965FAD639754FF02C060E839
:10325000F62A63968FAD63978F70E82FF0E0EE0F3C
:10326000FF1FEE0FFF1F6296AEADBFAD6297EA0F74
:10327000FB1F60807180828093808F3009F4ECC5E1
:103280006B96EFAD6B97EE2389F06D96FFAD6D9762
:10329000FF2361F0ECEF2E2EEFEF3E2EEFEF4E2EE0
:1032A000EFEF5E2E622073208420952066968CAD11
:1032B0009DADAEADBFAD669777E0B695A7959795F6
:1032C00087957A95D1F78F7166962CAD3DAD4EAD51
:1032D0005FAD669765E056954795379527956A9552
:1032E000D1F72370307040705070213031054105A6
:1032F000510511F40C947522213031054105510519
:1033000008F057C504C0660C771C881C991C8A9568
:10331000D2F70C94031066968CAD9DADAEADBFADEB
:10332000669705E0B695A795979587950A95D1F785
:10333000382F337063968FAD63978F70E82FF0E06E
:10334000EE0FFF1FEE0FFF1F62966EAD7FAD62970F
:10335000E60FF71F60807180828093808F3009F4C0
:1033600023C66B968FAD6B97882389F06D969FADC2
:103370006D97992361F0FCEF2F2EFFEF3F2EFFEFAB
:103380004F2EFFEF5F2E62207320842095206396DE
:103390003FAC639734FE9CC466964CAD5DAD6EAD9C
:1033A0007FAD6697BB27A72F962F852F8F70E82FAD
:1033B000F0E0EE0FFF1FEE0FFF1F62966EAD7FADC8
:1033C0006297E60FF71F40815181628173818F30D0
:1033D00011F40C943E236B969FAD6B97992329F0C3
:1033E0006D96AFAD6D97A1114C7F242F442309F446
:1033F00062C0313011F40C940730313010F00C946D
:10340000AF2A403208F47DC4403211F40C940C38D9
:1034100024961FAE249766247724430104CABBA8D0
:10342000B6FE15C00E8D0F3011F40C945D2362961C
:103430002EAD3FAD6297AA964EAD5FADAA97240F11
:10344000351FD9016D927D928D929C921397BDA9E3
:10345000BB2309F0BDC52FA838AC37FC02C00C94C3
:10346000770FF7FE02C00C94770F6296AEADBFAD3A
:103470006297DC962D913D914D915C91DF97C9014A
:1034800081709070892B11F40C94672A2E7FFD01B6
:1034900024AF35AF46AF57AFE096EEADFFADE09746
:1034A00080819181A281B381806280839183A28394
:1034B000B3830C94770F24961FAF2497B4C984E08C
:1034C000D82E0C944B10822F90E0FC01EE0FFF1FC2
:1034D000EE0FFF1FEE0FFF1F880F991FE80FF91F58
:1034E00062962EAC3FAC6297E20DF31DE455FF4FA0
:1034F000A081B181109711F40C94B00E822F90E04E
:10350000FC01EE0FFF1FEE0FFF1FEE0FFF1F880FD6
:10351000991FE80FF91FE20DF31DEE54FF4F608174
:10352000718166960CAD1DAD2EAD3FAD669794E1F1
:1035300036952795179507959A95D1F70F7066964A
:103540004CAC5DAC6EAC7FAC66978CE076946794C7
:10355000579447948A95D1F71FE0312E4320669601
:103560006CAC7DAC8EAC9FAC66976401EE24FF24FE
:10357000C32063965FAD63975F7054014301E5E03C
:10358000B694A79497948794EA95D1F737E0732E71
:10359000872062968EAD9FAD6297202F042DEC2C74
:1035A000C52EA82CFD010995882311F40C94B00EAA
:1035B0000C94770F82E090E0A0E0B0E00C946C11E6
:1035C00066964CAC5DAC6EAC7FAC669767FE3AC459
:1035D000892D582F50640C94751292E0692E712C2D
:1035E000812C912C0C9400122B3031054105510592
:1035F00011F40C9477282C3031054105510508F061
:1036000041C7293031054105510511F40C94432877
:103610002A3031054105510510F40C9415282296E5
:103620000FAD2297002311F40C94B00EE62FF0E0BA
:10363000EE0FFF1FEE0FFF1F62962EAD3FAD62979C
:10364000E20FF31FE080F180028113816F3011F4EB
:103650000C9447346B964FAD6B97442369F06D968D
:103660005FAD6D97552341F06CEF7FEF8FEF9FEFCC
:10367000E622F72208231923170128012618370804
:1036800048085908D201C1018E259F25A027B127DE
:10369000A8019701262537254825592582239323FC
:1036A000A423B5238827B7FD83959927AA27BB278D
:1036B00023968FAF239724961FAE2497E614F70422
:1036C0000805190520F071E024967FAF249780E06B
:1036D00048C96B827C828D829E8266247724430156
:1036E0000C943910C201B101660D771D881D991D1A
:1036F0006DA77EA78FA798AB70E8F72A0C94871068
:103700006B96EFAD6B97EE2309F05DC484E090E01B
:10371000A0E0B0E0280E391E4A1E5B1E0C94661015
:10372000D201C101820F931FA41FB51F8F8F98A3D1
:10373000A9A3BAA36296AEADBFAD6297A25BBE4F1E
:10374000ED91FC911197AE54B1406296BFAFAEAF10
:103750006297CD01BE016D5F7F4F2F8D38A149A1CA
:103760005AA10D2DEE246C96CFAC6C975E01089497
:10377000A11CB11C0995882309F490C7B1E0DB16A0
:1037800011F40C943C27CB80DC80ED80FE806696A3
:103790000CAD1DAD2EAD3FAD6697BCE036952795BF
:1037A00017950795BA95D1F766960CAF1DAF2EAF5A
:1037B0003FAF669763960FAD63970F700F3011F4AC
:1037C0000C941427E02FF0E0EE0FFF1FEE0FFF1F09
:1037D00062962EAD3FAD6297E20FF31FC082D18299
:1037E000E282F382611471048104910411F40C9457
:1037F000770FB201A101460D571D681D791D3BA130
:103800003F3011F40C94E82A62962EAD3FAD6297DA
:10381000AC968EAD9FADAC97280F391FD9014D9353
:103820005D936D937C9313970C94770F66968CAD94
:103830009DADAEADBFAD669780769070A070B07054
:103840000097A105B10509F0EFC366966CAC7DAC9D
:103850008EAC9FAC669790FC02C00C944A24D401B5
:10386000C30134E1B695A795979587953A95D1F719
:103870008F709070A070B0700097A105B10511F025
:103880000C943D2B66968CAC9DACAEACBFAC6697F1
:10389000C501AA27BB278F70E82FF0E0EE0FFF1FAE
:1038A000EE0FFF1F6296AEACBFAC6297EA0DFB1D38
:1038B00040805180628073808F3011F40C947A3490
:1038C0006B96CFAC6B97CC2089F06D96DFAC6D9783
:1038D000DD2061F08CEFE82E8FEFF82E8FEF082FB0
:1038E0008FEF182F4E205F206022712262960EAD5E
:1038F0001FAD6297025B1E4FE2961FAF0EAFE297BD
:10390000B3E08B2E912C8C0E9D1ED801ED91FC9175
:1039100062968EAD9FAD6297B401A301920104E05F
:10392000EE246C96CFAC6C971E010894211C311CC0
:1039300051010995882311F40C949235AB80BC8019
:10394000CD80DE80A8A6B9A6CAA6DBA663968FADF9
:1039500063978F70E82FF0E0EE0FFF1FEE0FFF1F51
:103960006296CEACDFAC6297EC0DFD1D20813181FB
:10397000428153818F3011F40C9482356B96EFACF9
:103980006B97EE2029F06D96FFAC6D97F1102C7FB0
:103990002B833C834D835E83E296AEADBFADE29751
:1039A000ED91FC9162968EAD9FAD6297B401A3013B
:1039B000920104E0EE24E3946C96CFAC6C97510135
:1039C0000995882311F40C944C3766962CAC3DACC9
:1039D0004EAC5FAC66977CE056944794379427943E
:1039E0007A95D1F766962CAE3DAE4EAE5FAE669739
:1039F00063960FAD63970F700F3011F40C9421375D
:103A0000E02FF0E0EE0FFF1FEE0FFF1F62962EADCE
:103A10003FAD6297E20FF31F48A559A56AA57BA5A4
:103A200040835183628373830C94770F66962CAC2A
:103A30003DAC4EAC5FAC669745FE92C4D201C1016D
:103A400080709070AF74B0700097A105B10511F44B
:103A50000C94B00E82017101FFEF4F2E512C612C9E
:103A6000712CE420F5200621172166966CAC7DAC04
:103A70008EAC9FAC6697BB27A92D982D872D8F7094
:103A80009070A070B070880F991FAA1FBB1F882369
:103A9000D1F090E0B801A701082E04C07695679593
:103AA000579547950A94D2F720E230E0281B390B4E
:103AB00004C0EE0CFF1C001F111F2A95D2F7E42A48
:103AC000F52A062B172B66962CAD3DAD4EAD5FAD9E
:103AD000669746FF02C00C94A12A66962CAC3DACBA
:103AE0004EAC5FAC6697C201AA27BB27282F2F7068
:103AF0006C963FAC6C97332011F40C94062F222E59
:103B000020FF18C06E2D6F7162968EAD9FAD6297CB
:103B10000E94C90BD601C50180705FEFA52EB12CA4
:103B2000C12CD12CAE20BF20C022D122A82AB92A74
:103B3000CA2ADB2A21FE14C04FEF442E512C4FEF2E
:103B4000642E4FEF742EA420B520C620D720D801B4
:103B5000C7018070A070B070A82AB92ACA2ADB2ACF
:103B600022FE14C03FEF632E3FEF732E812C3FEFF8
:103B7000932EA620B720C820D920D801C701807075
:103B80009070B070A82AB92ACA2ADB2A23FE14C072
:103B90002FEF3FEF4FEF50E0A222B322C422D522F5
:103BA00040E050E060E07FEFE422F5220623172397
:103BB000AE28BF28C02AD12AE096AEADBFADE097AF
:103BC000AD92BD92CD92DC9213970C94770FDE01EB
:103BD00012960C942613F42D6E965FAE6E97562DAA
:103BE000E72D0C942013862F90E0FC01EE0FFF1FB1
:103BF000EE0FFF1FEE0FFF1F880F991FE80FF91F31
:103C000062962EAC3FAC6297E20DF31DE055FF4F7C
:103C1000A081B181109711F40C94B00E862F90E022
:103C2000FC01EE0FFF1FEE0FFF1FEE0FFF1F880FAF
:103C3000991FE80FF91FE20DF31DEE54FF4F60814D
:103C4000718166962CAD3DAD4EAD5FAD669784E15A
:103C500056954795379527958A95D1F721706696A1
:103C6000ACACBDACCEACDFAC669704E0D694C794E8
:103C7000B794A7940A95D1F71FE0312EA32066963A
:103C8000ECACFDAC0EAD1FAD6697FCE0169507954C
:103C9000F794E794FA95D1F7E3206396EFAD639735
:103CA000EF7062968EAD9FAD6297422F2A2D0E2D3A
:103CB000E92CCE2EFD010995882311F40C94B00E49
:103CC0000C94770FAEA8AA2011F00C94B00EF5C892
:103CD00066968CAD9DADAEADBFAD669747E0B6952F
:103CE000A795979587954A95D1F7282F2F71313051
:103CF00011F40C94FE29313008F098C4222309F401
:103D0000DACB30E080E290E0821B930B13012401B8
:103D100004C056944794379427948A95D2F7022D7D
:103D2000017024960FAF249704C0660C771C881C82
:103D3000991C2A95D2F70C94131462968EAD9FAD00
:103D40006297B401A30124E0012FEE24C9800E94F0
:103D50005E0CEBA9FCA9EF70F070FCABEBAB0BA811
:103D600004C056944794379427940A94D2F7C1011B
:103D700081709070892B11F40C94770FFE8DFF30B9
:103D800011F40C94762A62962EAD3FAD6297AA96F6
:103D90004EAD5FADAA97240F351FD90169897A8985
:103DA0008B899C896D937D938D939C9313970C9431
:103DB000770F223031054105510509F457C32330EF
:103DC00031054105510511F00C940310882311F4BD
:103DD0000C94022890E0B401A301082E04C076954B
:103DE0006795579547950A94D2F720E230E0281B53
:103DF000390B04C0660C771C881C991C2A95D2F7D5
:103E0000642A752A862A972A0C9403106B965FAD54
:103E10006B97552309F0ECC384E090E0A0E0B0E09C
:103E200029883A884B885C88280E391E4A1E5B1EFA
:103E3000298A3A8A4B8A5C8A6EC882E090E0A0E0C8
:103E4000B0E0ABC9892D8068C4CB97FC02C00C944C
:103E5000DC1450680C94DC146B96BFAD6B97BB23DD
:103E600009F0DAC384E090E0A0E0B0E0680E791ECB
:103E70008A1E9B1E05CA1B821C821D821E8266969C
:103E80008CAC9DACAEACBFAC66977CE0B694A7940E
:103E9000979487947A95D1F766968CAE9DAEAEAE28
:103EA000BFAE669763968FAD63978F70E82FF0E093
:103EB000EE0FFF1FEE0FFF1F6296AEACBFAC629716
:103EC000EA0DFB1D20813181428153818F3011F435
:103ED0000C949C296B96CFAC6B97CC2029F06D96F7
:103EE000EFAC6D97E1102C7F53E0852E912C8C0E5A
:103EF0009D1E2B830C94D0106B966FAC6B97662035
:103F000009F08FC384E090E0A0E0B0E0C80ED91EB5
:103F1000EA1EFB1E0C94CD1262968EAD9FAD629789
:103F2000B301A2012D2D01E0EE24C9800E945E0C98
:103F30000C94770F6C8D7D8D44C8D401C3018E7FA6
:103F40006296EEADFFAD629784AF95AFA6AFB7AF07
:103F5000E096EEADFFADE09780819181A281B381C3
:103F60008F7D80839183A283B38361FE02C00C9412
:103F7000A934E096EEADFFADE0972081318142811A
:103F800053812F7D2083318342835383C30181700A
:103F90009070892B11F40C94770F20622083318369
:103FA000428353830C94770F6B967FAD6B97772387
:103FB00009F05FC384E090E0A0E0B0E0680E791EF5
:103FC0008A1E9B1ECEC982E090E0A0E0B0E0A2CBAA
:103FD0006296EEADFFAD6297EC5BFF4F1081018101
:103FE000F280E380612F6F7162968EAD9FAD629714
:103FF0000E94C90BE096EEADFFADE0971083018300
:10400000F282E3820C94770F6B966FAD6B97662309
:1040100009F0EAC584E090E0A0E0B0E0280F391F85
:104020004A1F5B1F0C94BD10DE011796EAE6F2E012
:1040300088E001900D928150E1F766962CAC3DAC82
:104040004EAC5FAC6697C201AA27BB27182F1F7022
:1040500046FED8C34201310174E096948794779468
:1040600067947A95D1F760EFA62EB12CC12CD12C94
:104070006A207B208C209D20D201C1018F7090701E
:10408000A070B070682A792A8A2A9B2A66968CAD1D
:104090009DADAEADBFAD669744E1B695A79597953A
:1040A00087954A95D1F7282F217066968CAD9DADE6
:1040B000AEADBFAD669735E0B695A7959795879558
:1040C0003A95D1F7817063963FAD639736FDD6C3BD
:1040D000882309F41068222309F0DAC366964CADF0
:1040E0005DAD6EAD7FAD669767FD08C0909480941E
:1040F00070946094611C711C811C911C66966CAD5F
:104100007DAD8EAD9FAD669790FDFFC21B821C8278
:104110001D821E8285FD10682B803C804D805E8054
:104120002CA23DA24EA25FA217FF02C00C94B00EBB
:104130000FE0202E2122422C5524440C551C440C07
:10414000551CAE965FAE4EAEAE976296EEADFFAD2D
:104150006297E40DF51DA080B180C280D380AD8A46
:10416000BE8ACF8AD88EAFE0BA2E2B1411F40C94ED
:10417000442F6B963FAD6B97332371F06D964FAD27
:104180006D97442349F06D897E898F89988D6C7F66
:104190006D8B7E8B8F8B988F812F90E0F0E34F2E6D
:1041A000512C4822592270E14716510459F0A1E1DF
:1041B0004A16510414F00C94222C4114510411F0AD
:1041C0000C942B2CE2E03E2E86FF02C00C945C2F58
:1041D000611471048104910411F00C94C42C28968C
:1041E0001CAE1DAE1EAE1FAE2897BB24B3943B146D
:1041F00011F40C94F93172E0371611F40C94D932A1
:1042000066964CAC5DAC6EAC7FAC66975CE0769429
:104210006794579447945A95D1F766964CAE5DAE25
:104220006EAE7FAE669763960FAD63970F70E02F0B
:10423000F0E0EE0FFF1FEE0FFF1F62966EAC7FAC3B
:104240006297E60DF71D80819181A281B3810F30C5
:1042500011F40C9427336B968FAC6B97882029F060
:104260006D969FAC6D9791108C7F8F839887A987EF
:10427000BA87802F8F5FE82FF0E0EE0FFF1FEE0F61
:10428000FF1F6296AEACBFAC6297EA0DFB1D2081AA
:104290003181428153818F3011F40C9417336B9626
:1042A000CFAC6B97CC2029F06D96DFAC6D97D11019
:1042B0002C7F2B873C874D875E876D887E888F8813
:1042C000988C2CA13DA14EA15FA1620E731E841E8D
:1042D000951E62964EAD5FAD6297425B5E4FDA010E
:1042E000ED91FC911197AE54B1406296BFAFAEAF65
:1042F0006297CD01BE01695F7F4FA4019301032D39
:10430000EE24E3946C96CFAC6C975E010894A11CEC
:10431000B11C0995882311F40C94743117FD02C067
:104320000C94770F812F8F708F3011F40C949F3580
:10433000E82FF0E0EE0FFF1FEE0FFF1F62962EAD8D
:104340003FAD6297E20FF31F28964CAD5DAD6EADA9
:104350007FAD289740835183628373830C94770FDA
:1043600066962CAC3DAC4EAC5FAC669746FEDCC1AD
:10437000D201C1012CE0B695A795979587952A950E
:10438000D1F70FE0D02ED8226D2D70E0660F771F89
:10439000660F771F6296EEADFFAD6297E60FF71FCF
:1043A000E080F18002811381BFE03B2ED31411F431
:1043B0000C94D9316B965FAC6B97552089F06D9654
:1043C0006FAC6D97662061F0ACEF8A2EAFEF9A2E3E
:1043D000AFEFAA2EAFEFBA2EE820F9200A211B2159
:1043E0002FEF3FEF40E050E0E222F32204231523B9
:1043F00066962CAD3DAD4EAD5FAD669720703070CA
:104400004F705070FCE0220F331F441F551FFA9568
:10441000D1F766968CAD9DADAEADBFAD66979F7082
:10442000A070B07066968CAF9DAFAEAFBFAF669711
:10443000DC0199278827282B392B4A2B5B2B2E2927
:104440003F29402B512B9FE0D91611F40C94362AAA
:1044500062968EAD9FAD6297680F791FDB012D9339
:104460003D934D935C9313970C94770F882309F435
:1044700038C604C095948794779467948A95D2F748
:104480000C9403102E3031054105510509F4A5C4E3
:104490002F3031054105510509F49AC42C303105FE
:1044A0004105510509F471C466962CAC3DAC4EAC87
:1044B0005FAC66978CE056944794379427948A951E
:1044C000D1F766962CAE3DAE4EAE5FAE6697639664
:1044D0000FAD63970F7022963FAC2297332011F4F3
:1044E0000C94F21481E00C94CA14882309F01BC7C1
:1044F0006624772443010C940310253031054105CF
:10450000510509F4ACC6263031054105510508F4C2
:10451000DFC4E62FF0E0EE0FFF1FEE0FFF1F6296E5
:104520004EAC5FAC6297E40DF51D20813181428174
:1045300053816F3011F40C9440326B96EFAC6B9753
:10454000EE2029F06D96FFAC6D97F1102C7F1123B2
:1045500011F40C94922E79018A01E618F7080809E3
:10456000190922966FAD2297662339F124961FAE62
:104570002497261537054805590520F071E0249643
:104580007FAF2497D801C70182279327A427B52797
:10459000262537254825592582239323A423B5238F
:1045A0008827B7FD83959927AA27BB2723968FAF26
:1045B0002397170128010C94B0143701480166961F
:1045C000ACACBDACCEACDFAC66975CE0D694C79427
:1045D000B794A7945A95D1F76696ACAEBDAECEAE61
:1045E000DFAE669763960FAD63970F700C94F2146D
:1045F00082E090E0A0E0B0E013CCBA01645E7F4FAF
:10460000660F771F660F771F6296AEACBFAC6297DE
:104610006A0D7B1D0C94E11782E090E0A0E0B0E011
:1046200025CC82E090E0A0E0B0E070CC323009F41C
:10463000BEC6333011F00C945B1A222311F00C9497
:104640002E30862D817024968FAF24979694879470
:1046500077946794112311F40C941314212C312CAA
:10466000412C90E8592E62287328842895280C94B0
:10467000131482E090E0A0E0B0E0A0CC6B968FAD88
:104680006B97882309F083C784E090E0A0E0B0E056
:10469000480F591F6A1F7B1F0C94EB1962968EAD51
:1046A0009FAD62974F8D58A169A17AA12D2D00E091
:1046B000C9800E945E0C0C94770FD401C3018E7FD9
:1046C0006296EEADFFAD629784AF95AFA6AFB7AF80
:1046D000E096AEADBFADE0972D913D914D915C91CF
:1046E00013972F7DFD012083318342835383C301C0
:1046F00081709070892B09F49FC720622D933D93A0
:104700004D935C9313970C94271A66968CAD9DADD0
:10471000AEADBFAD6697A5FD02C00C94DC2E6B82DA
:104720007C828D829E82F8CC66968CAD9DADAEADBE
:10473000BFAD66971CE0B695A795979587951A9596
:10474000D1F7E82FEF7066962CAD3DAD4EAD5FAD65
:104750006697A4E05695479537952795AA95D1F782
:104760002070307F4070507066966CAD7DAD8EAD20
:104770009FAD66977F7080709070262B372B482BEB
:10478000592BEF3009F472C6F0E0EE0FFF1FEE0F69
:10479000FF1F62966EAD7FAD6297E60FF71F208315
:1047A0003183428353830C94770F882311F40C9444
:1047B000D1146296EEADFFAD6297EC5BFF4F1081B6
:1047C0000181F280E380612F6F7162968EAD9FADA3
:1047D00062970E94C90BE096AEADBFADE0971C9307
:1047E00011960C9311971296FC9212971396EC92D5
:1047F0006296EEADFFAD629764AE75AE86AE97AED3
:104800000C94770F66968CAD9DADAEADBFAD66973F
:1048100080709F70A070B0700097A105B10509F07D
:10482000106863968FAD63978F70E82FF0E0EE0FFE
:10483000FF1FEE0FFF1F6296CEACDFAC6297EC0D50
:10484000FD1D60807180828093808F3011F40C9404
:10485000E9316B96EFAC6B97EE2009F417CC6D96AF
:10486000FFAC6D97FF2009F411CC2CEF3FEF4FEF19
:104870005FEF622273228422952208CC882309F4F8
:10488000BBC51061222321F41063882309F026CCD4
:10489000106424CC66968CAD9DADAEADBFAD669771
:1048A00014E1B695A795979587951A95D1F78F70CE
:1048B0009070A070B0708A309105A105B10508F024
:1048C000D1C788309105A105B10510F40C94613071
:1048D00066964CAD5DAD6EAD7FAD6697CB01AA27F8
:1048E000BB27582F5F705AAB66968CAD9DADAEADB1
:1048F000BFAD6697ECE0B695A79597958795EA9535
:10490000D1F7682F6F7069AB6F961FAE6F97A09647
:104910001FAEA097A1961FAEA197A2961FAEA29719
:10492000A3961FAEA397A4961FAEA497A5961FAEFD
:10493000A597A6961FAEA69766962CAC3DAC4EAC3E
:104940005FAC6697BB27A52D942D832D8F70E82F24
:10495000F0E0EE0FFF1FEE0FFF1F62964EAC5FAC54
:104960006297E40DF51D20803180428053808F30A6
:1049700011F40C9428346B967FAC6B97772089F0F8
:104980006D968FAC6D97882061F02CEFA22E2FEFE3
:10499000B22E2FEFC22E2FEFD22E2A203B204C20FA
:1049A0005D2063968FAD63978F70E82FF0E0EE0F78
:1049B000FF1FEE0FFF1F6296CEACDFAC6297EC0DCF
:1049C000FD1DA080B180C280D3808F3011F40C9483
:1049D000FD336B96FFAC6B97FF2069F06D960FADC2
:1049E0006D97002341F02CEF3FEF4FEF5FEFA222D6
:1049F000B322C422D52266964CAD5DAD6EAD7FADBF
:104A0000669766FD02C00C94CB3286017501110FCA
:104A1000EE08FE2C870142013101990C6608762CC4
:104A200043019501A6016E2D7E2D8E2D9E2D5101E7
:104A30006201E62CF62C062D162D0E945001A32FA4
:104A4000B42F152F062FF72EE82ED92E6F962FACE8
:104A50006F97220EF1E0221608F0F0E0A0963FAD2D
:104A6000A0973A0FE1E03A1708F0E0E08F2E830EAE
:104A700021E0831608F020E0E22BA1964FADA1972C
:104A80004B0F31E04B1708F030E07E2E740E21E022
:104A9000741608F020E0322BA2965FADA297510F5A
:104AA00041E0511708F040E0632E650E21E06516E5
:104AB00008F020E0422BA3966FADA397600F31E082
:104AC000601708F030E0542E560E21E0561608F01C
:104AD00020E0322BA4967FADA4977F0D41E07F1597
:104AE00008F040E0432E470E21E0471608F020E092
:104AF000422BA5968FADA5978E0D21E08E1508F05F
:104B000020E0342E380E91E0381608F090E0922E16
:104B1000992AA6965FADA697D50E9D0C222D382D0D
:104B2000472D562D652D742D832D992D00E20E9461
:104B30004B0259016A01222D382D472D562D69A9A6
:104B40006F3011F40C947A3319A9E12FF0E0EE0FD5
:104B5000FF1FEE0FFF1F62966EAD7FAD6297E60FEF
:104B6000F71F20833183428353837AA97F3011F466
:104B70000C94B0331AA9E12FF0E0EE0FFF1FEE0FF7
:104B8000FF1F62962EAD3FAD6297E20FF31FA0822A
:104B9000B182C282D38266964CAD5DAD6EAD7FAD03
:104BA000669764FD02C00C94770FE096AEADBFAD82
:104BB000E0974D915D916D917C917F73822D882955
:104BC00087298629852984298329892909F47064FC
:104BD000D7FC7068E096EEADFFADE097408351835F
:104BE000628373830C94770F82E090E0A0E0B0E0E2
:104BF00015CA87309105A105B10509F4D6C60797F6
:104C0000A105B10510F40C94B00E20383105410512
:104C1000510511F00C94B00E63968FAD63978F70B1
:104C2000E82FF0E0EE0FFF1FEE0FFF1F62962EAC95
:104C30003FAC6297E20DF31D2080318042805380AB
:104C40008F3011F40C9469376B967FAC6B9777209B
:104C500089F06D968FAC6D97882061F09CEFA92E3E
:104C60009FEFB92E9FEFC92E9FEFD92E2A203B2010
:104C70004C205D206696CCACDDACEEACFFAC66970C
:104C8000BB27AF2D9E2D8D2D8F70E82FF0E0EE0FFE
:104C9000FF1FEE0FFF1F6296EEACFFAC6297EE0DAA
:104CA000FF1D20813181428153818F3011F40C949A
:104CB0005A376B960FAD6B97002329F06D961FAD99
:104CC0006D9711112C7F66968CAD9DADAEADBFADCD
:104CD000669715E1B695A795979587951A95D1F79B
:104CE00083709070A070B07081309105A105B105FE
:104CF00011F40C94F83981309105A105B10510F437
:104D00000C94693982309105A105B10511F40C9418
:104D100096380397A105B10511F40C9452386696A4
:104D20002CAD3DAD4EAD5FAD6697CA01AA27BB273E
:104D3000082F0F7088249924540110E00F3011F4CB
:104D40000C941836E02FF0E0EE0FFF1FEE0FFF1F60
:104D500062964EAD5FAD6297E40FF51F808291823F
:104D6000A282B382112311F40C94770FE096EEAD7A
:104D7000FFADE09780819181A281B381B86080838B
:104D80009183A283B3830C94770FE62FF0E0EE0FAC
:104D9000FF1FEE0FFF1F62964EAD5FAD6297E40FEF
:104DA000F51F20813181428153816F3011F40C94C1
:104DB00030326B967FAD6B97772329F06D968FAD70
:104DC0006D9781112C7F622A732A842A952A6CCBD5
:104DD000609470948094909467CBE62FF0E0EE0F8F
:104DE000FF1FEE0FFF1F6296AEADBFAD6297EA0FD9
:104DF000FB1F20813181428153816F3011F40C946B
:104E000054316B96EFAD6B97EE2329F06D96FFADA5
:104E10006D97F1112C7F609470948094909462222D
:104E200073228422952240CBD701C6018E7F6296E1
:104E3000EEADFFAD629784AF95AFA6AFB7AFE0968A
:104E4000AEADBFADE0972D913D914D915C91139723
:104E50002F7DFD012083318342835383C6018170FE
:104E60009070892B09F4B1C720622D933D934D9327
:104E70005C9313970C94F21B8B8190E0A0E0B0E060
:104E80008B839C83AD83BE830C94C31BE62FF0E021
:104E9000EE0FFF1FEE0FFF1F62968EAD9FAD629764
:104EA000E80FF91F20813181428153816F3011F465
:104EB0000C9450326B96AFAD6B97AA2309F4AFCF29
:104EC0006D96BFAD6D97BB2309F4A9CF2C7FA7CFFB
:104ED000E62FF0E0EE0FFF1FEE0FFF1F62964EADC4
:104EE0005FAD6297E40FF51F2081318142815381CC
:104EF0006F3011F40C9492316B967FAD6B977723E2
:104F000029F06D968FAD6D9781112C7F79018A0103
:104F1000E60CF71C081D191D22969FAD22979923B8
:104F200009F44BCBD801C70182279327A427B527C3
:104F3000212C312C412CF0E85F2E620C731C841C58
:104F4000951C622673268426952686219721A82102
:104F5000B9218827B7FD83959927AA27BB272396D0
:104F60008FAF239724961FAE2497E216F30604070B
:104F7000150720F421E024962FAF2497170128016C
:104F80000C94B014E62FF0E0EE0FFF1FEE0FFF1FA2
:104F90006296AEADBFAD6297EA0FFB1F20813181F3
:104FA000428153816F3011F40C9444316B96EFAD14
:104FB0006B97EE2329F06D96FFAD6D97F1112C7F65
:104FC000112309F48AC684017301E21AF30A040B5F
:104FD000150B22962FAC2297222009F4EECA2496B4
:104FE0001FAE2497621673068406950620F061E0D2
:104FF00024966FAF2497D801C70186259725A82549
:10500000B925C6CA9694879477946794D5FC02C054
:105010000C940310A12CB12CC12C90E8D92E6A2835
:105020007B288C289D280C94031022969FAD2297F4
:10503000992311F40C94B00EE62FF0E0EE0FFF1F51
:10504000EE0FFF1F6296AEADBFAD6297EA0FFB1F7A
:1050500080819181A281B3816F3011F40C946B3403
:105060006B96FFAD6B97FF2329F06D962FAC6D9774
:1050700021108C7F1C012D0126203720482059202B
:1050800080E00C94B11422963FAC2297332011F4A7
:105090000C94B00EE62FF0E0EE0FFF1FEE0FFF1F97
:1050A00062964EAC5FAC6297E40DF51D80819181F4
:1050B000A281B3816F3011F40C94ED336B96EFAC99
:1050C0006B97EE2029F06D96FFAC6D97F1108C7FF9
:1050D0001C012D01262437244824592480E00C94F7
:1050E000B114990C6608762C43010C940310229697
:1050F0008FAD2297882311F40C94B00EE62FF0E0C8
:10510000EE0FFF1FEE0FFF1F6296AEADBFAD6297B1
:10511000EA0FFB1F20813181428153816F3011F4EE
:105120000C94DD336B96EFAD6B97EE2329F06D9603
:10513000FFAD6D97F1112C7F79018A01E60CF71C08
:10514000081D191DD801C70182279327A427B52759
:10515000212C312C412C70E8572E620C731C841CBE
:10516000951C622673268426952686219721A821E0
:10517000B9218827B7FD83959927AA27BB272396AE
:105180008FAF239724961FAE2497E216F3060407E9
:10519000150720F421E024962FAF2497170128014A
:1051A00080E00C94B114E62FF0E0EE0FFF1FEE0F3D
:1051B000FF1F6296AEADBFAD6297EA0FFB1FE080A6
:1051C000F180028113816F3011F40C9482316B965F
:1051D000EFAD6B97EE2389F06D96FFAD6D97FF23D2
:1051E00061F03CEF232E3FEF332E3FEF432E3FEF96
:1051F000532EE220F32004211521130124012E183F
:105200003F08400A510A22962FAD2297222309F027
:10521000AAC542013101D3C9E62FF0E0EE0FFF1F0E
:10522000EE0FFF1F62962EAC3FAC6297E20DF31DAE
:1052300020813181428153816F3011F40C94C93146
:105240006B964FAC6B97442029F06D965FAC6D97D1
:1052500051102C7F622673268426952625C9E62FB9
:10526000F0E0EE0FFF1FEE0FFF1F62964EAD5FAD39
:105270006297E40FF51F20813181428153816F30A5
:1052800011F40C94A9316B967FAD6B97772329F0BD
:105290006D968FAD6D9781112C7F112309F4D9C5BF
:1052A0000894611C711C811C911C84017301E20E25
:1052B000F31E041F151F08946108710881089108E6
:1052C00022969FAD2297992309F477C924961FAEA1
:1052D00024972E153F054007510720F0A1E02496A2
:1052E000AFAF2497D801C70182279327A427B527FA
:1052F000212C312C412C60E8562E620C731C841C2E
:10530000951C262537254825592582239323A42338
:10531000B5238827B7FD83959927AA27BB2723960E
:105320008FAF23972BCE04C096948794779467947D
:105330008A95D2F70C9403106B96BFAC6B97BB2089
:1053400009F067C584E090E0A0E0B0E0280F391FC5
:105350004A1F5B1F0C946A1F8DA59EA5AFA5B8A917
:105360008E7F6296EEADFFAD629784AF95AFA6AF2C
:10537000B7AFE096AEADBFADE0972D913D914D91A9
:105380005C9113972F7DFD012083318342835383EA
:105390008DA59EA581709070892B11F00C94B31887
:1053A000BDA5B1FD02C00C94770F0C94B01122235F
:1053B00009F434C1422F50E041505040D401C301A0
:1053C000042E04C0B695A795979587950A94D2F7B1
:1053D0004F5F5F4F782F717024967FAF249797FEB1
:1053E00002C00C94DA3404C096948794779467943E
:1053F0004A95D2F70C941314106244CA222309F080
:10540000CBC0662497FC639477248824992424963F
:105410006FAE24976624772443010C941314D301B0
:10542000C2018E7F6296EEADFFAD629784AF95AFFD
:10543000A6AFB7AFE096AEADBFADE0972D913D9171
:105440004D915C9113972F7DFD0120833183428321
:105450005383C20181709070892B11F00C94B318A2
:1054600041FC02C00C94770F0C94B011DA01C90111
:105470008E7F6296EEADFFAD629784AF95AFA6AF1B
:10548000B7AFE096AEADBFADE097ED90FD900D915A
:105490001C911397FFED2F2EFFEF3F2EFFEF4F2EA6
:1054A000FFEF5F2EE220F32004211521ED92FD9203
:1054B0000D931C931397C90181709070892B09F08B
:1054C00058C721FD02C00C94770F0C94B011E096E0
:1054D000EEADFFADE09780819181A281B3818F7D98
:1054E00080839183A283B3830C94770F89899A89EF
:1054F000AB89BC898E7F6296EEADFFAD629784AFBB
:1055000095AFA6AFB7AFE096AEADBFADE0972D912A
:105510003D914D915C9113972F7DFD012083318347
:105520004283538389899A8981709070892B11F005
:105530000C94B318B989B1FD02C00C94770F0C9488
:10554000B01162964EAD5FAD62974C5B5F4FDA0172
:10555000ED92FD920D931C9313970C94770F3230BC
:1055600009F45DC5333011F00C945B1A2F7111F002
:105570000C949434D401C3018827B7FD83959927EF
:10558000AA27BB2724968FAF24970C94131482E08C
:1055900090E0A0E0B0E07CC8822F90E00197A401E9
:1055A0009301082E04C056954795379527950A9480
:1055B000D2F70196622F617024966FAF249704C0D2
:1055C00096948794779467948A95D2F70C941314E1
:1055D000DB01CA018E7F6296EEADFFAD629784AFAC
:1055E00095AFA6AFB7AFE096AEADBFADE0970D916A
:1055F0001D912D913C9113970F7DFD010083118327
:1056000022833383CA0181709070892B09F0A8C767
:1056100041FD02C00C94770F0C94B01197FC02C0AE
:105620000C94081A21E024962FAF249766246A94DC
:10563000762C43010C94131461FC02C00C94271ABD
:105640006296EEADFFAD6297E05BFE4F6296FFAFF4
:10565000EEAF62970190F081E02D62960EAD1FAD26
:1056600062970055114062961FAF0EAF6297C80156
:1056700063E371E009950C94271A0497A105B1051D
:1056800011F00C94B00E66962CAC3DAC4EAC5FACF9
:105690006697C201AA27BB278F70E82FF0E0EE0FB4
:1056A000FF1FEE0FFF1F62964EAC5FAC6297E40DDA
:1056B000F51D60807180828093808F3011F40C948E
:1056C000C8346B96AFAC6B97AA2089F06D96BFACCF
:1056D0006D97BB2061F03CEFC32E3FEFD32E3FEF21
:1056E000E32E3FEFF32E6C207D208E209F206296CC
:1056F0000EAD1FAD6297025B1E4FE2961FAF0EAF5D
:10570000E29722E0422E512C4C0E5D1ED801ED9105
:10571000FC9162968EAD9FAD6297B201A401930198
:1057200001E0EE246C96CFAC6C971E010894211C0E
:10573000311C51010995882311F40C94BB341A8152
:1057400063968FAD63978F70E82FF0E0EE0FFF1F29
:10575000EE0FFF1F6296AEACBFAC6297EA0DFB1D69
:1057600020813181428153818F3011F40C94F734C0
:105770006B96CFAC6B97CC2029F06D96DFAC6D9714
:10578000D1102C7F2A83E296AEADBFADE297ED91AA
:10579000FC9162968EAD9FAD6297B201A401930118
:1057A00001E0EE24E3946C96CFAC6C97510109951F
:1057B000882311F40C94A73A66962CAC3DAC4EAC01
:1057C0005FAC66970CE056944794379427940A95FB
:1057D000D1F766962CAE3DAE4EAE5FAE6697639641
:1057E0000FAD63970F70C12EDD24EE24FF240F3020
:1057F00011F00C94CF15D701C6018E7F6296EEADE5
:10580000FFAD629784AF95AFA6AFB7AFE096AEADF0
:10581000BFADE0972D913D914D915C9113972F7DF8
:10582000FD012083318342835383C60181709070D0
:10583000892B11F00C94B318C1FC02C00C94770FA3
:105840000C94B011B0E24B16510409F436C4E0E3F5
:105850004E16510419F033240C94E42078E0372ECE
:105860000C94E4208E309105A105B10508F46AC5B9
:1058700066962CAC3DAC4EAC5FAC6697C201AA27D5
:10588000BB27082F0F700AABE02FF0E0EE0FFF1FD1
:10589000EE0FFF1F62962EAD3FAD6297E20FF31F32
:1058A000E080F180028113813AA93F3011F40C9419
:1058B00082376B965FAD6B97552369F06D966FAD30
:1058C0006D97662341F08CEF9FEFAFEFBFEFE822BB
:1058D000F9220A231B2366968CAD9DADAEADBFADFC
:1058E00066976CE0B695A795979587956A95D1F7D9
:1058F000E82FEF70E9ABF0E0EE0FFF1FEE0FFF1F98
:1059000062962EAC3FAC6297E20DF31D208131818F
:105910004281538169A96F3011F40C9416386B964B
:105920008FAD6B97882329F06D969FAD6D97911180
:105930002C7F19012A01570168019701A60160E037
:1059400070E080E090E000E20E94CA0222296F9697
:105950002FAF6F973329A0963FAFA0974429A19608
:105960004FAFA1975529A2965FAFA297A3966FAFAD
:10597000A397A4967FAFA497A5968FAFA597A69659
:105980009FAFA6970C949C24AD88BE88CF88D88CF6
:10599000A60CB71CC81CD91C2896ACAEBDAECEAEAA
:1059A000DFAE289710680C94F52062960EAD1FADFF
:1059B0006297065B1E4FD801ED90FD900D911C91F2
:1059C0001397AA54B1406296BFAFAEAF62973CE066
:1059D000232E312C412C512CE20CF31C041D151DDF
:1059E000CD0167E10E94C90B87E990E0A0E0B0E03B
:1059F000E096EEADFFADE09780839183A283B38301
:105A000062962EAD3FAD62972C5B3F4FD901AD92B0
:105A1000BD92CD92DC921397A454B0406A962CADFF
:105A20003DAD4EAD5FAD6A972C5F3F4F4F4F5F4F1F
:105A3000D8962D933D934D935C93DB97FD01E4AE97
:105A4000F5AE06AF17AF0C94770F66968CAD9DAD93
:105A5000AEADBFAD66979F70AF7BB0708050904089
:105A6000AF40B04009F404C666968CAD9DADAEADB6
:105A7000BFAD6697807FA07BB0708050904FA042F2
:105A8000B04011F00C94B00E63968FAD63978F7099
:105A9000E82FF0E0EE0FFF1FEE0FFF1F62964EADF6
:105AA0005FAD6297E40FF51FE080F1800281138102
:105AB0008F3011F40C944A3B6B966FAD6B97662355
:105AC00069F06D967FAD6D97772341F08CEF9FEF76
:105AD000AFEFBFEFE822F9220A231B2366962CAC16
